{"abi":[{"type":"constructor","inputs":[{"name":"_avsDirectory","type":"address","internalType":"contract IAVSDirectory"},{"name":"_registryCoordinator","type":"address","internalType":"contract IRegistryCoordinator"},{"name":"_stakeRegistry","type":"address","internalType":"contract IStakeRegistry"}],"stateMutability":"nonpayable"},{"type":"function","name":"allTaskHashes","inputs":[{"name":"","type":"uint32","internalType":"uint32"}],"outputs":[{"name":"","type":"bytes32","internalType":"bytes32"}],"stateMutability":"view"},{"type":"function","name":"allTaskResponses","inputs":[{"name":"","type":"address","internalType":"address"},{"name":"","type":"uint32","internalType":"uint32"}],"outputs":[{"name":"","type":"bytes","internalType":"bytes"}],"stateMutability":"view"},{"type":"function","name":"avsDirectory","inputs":[],"outputs":[{"name":"","type":"address","internalType":"address"}],"stateMutability":"view"},{"type":"function","name":"createNewTask","inputs":[{"name":"name","type":"string","internalType":"string"}],"outputs":[],"stateMutability":"nonpayable"},{"type":"function","name":"deregisterOperatorFromAVS","inputs":[{"name":"operator","type":"address","internalType":"address"}],"outputs":[],"stateMutability":"nonpayable"},{"type":"function","name":"getOperatorRestakedStrategies","inputs":[{"name":"operator","type":"address","internalType":"address"}],"outputs":[{"name":"","type":"address[]","internalType":"address[]"}],"stateMutability":"view"},{"type":"function","name":"getRestakeableStrategies","inputs":[],"outputs":[{"name":"","type":"address[]","internalType":"address[]"}],"stateMutability":"view"},{"type":"function","name":"latestTaskNum","inputs":[],"outputs":[{"name":"","type":"uint32","internalType":"uint32"}],"stateMutability":"view"},{"type":"function","name":"owner","inputs":[],"outputs":[{"name":"","type":"address","internalType":"address"}],"stateMutability":"view"},{"type":"function","name":"pause","inputs":[{"name":"newPausedStatus","type":"uint256","internalType":"uint256"}],"outputs":[],"stateMutability":"nonpayable"},{"type":"function","name":"pauseAll","inputs":[],"outputs":[],"stateMutability":"nonpayable"},{"type":"function","name":"paused","inputs":[{"name":"index","type":"uint8","internalType":"uint8"}],"outputs":[{"name":"","type":"bool","internalType":"bool"}],"stateMutability":"view"},{"type":"function","name":"paused","inputs":[],"outputs":[{"name":"","type":"uint256","internalType":"uint256"}],"stateMutability":"view"},{"type":"function","name":"pauserRegistry","inputs":[],"outputs":[{"name":"","type":"address","internalType":"contract IPauserRegistry"}],"stateMutability":"view"},{"type":"function","name":"payForRange","inputs":[{"name":"rangePayments","type":"tuple[]","internalType":"struct IPaymentCoordinator.RangePayment[]","components":[{"name":"strategiesAndMultipliers","type":"tuple[]","internalType":"struct IPaymentCoordinator.StrategyAndMultiplier[]","components":[{"name":"strategy","type":"address","internalType":"contract IStrategy"},{"name":"multiplier","type":"uint96","internalType":"uint96"}]},{"name":"token","type":"address","internalType":"contract IERC20"},{"name":"amount","type":"uint256","internalType":"uint256"},{"name":"startTimestamp","type":"uint32","internalType":"uint32"},{"name":"duration","type":"uint32","internalType":"uint32"}]}],"outputs":[],"stateMutability":"nonpayable"},{"type":"function","name":"registerOperatorToAVS","inputs":[{"name":"operator","type":"address","internalType":"address"},{"name":"operatorSignature","type":"tuple","internalType":"struct ISignatureUtils.SignatureWithSaltAndExpiry","components":[{"name":"signature","type":"bytes","internalType":"bytes"},{"name":"salt","type":"bytes32","internalType":"bytes32"},{"name":"expiry","type":"uint256","internalType":"uint256"}]}],"outputs":[],"stateMutability":"nonpayable"},{"type":"function","name":"registryCoordinator","inputs":[],"outputs":[{"name":"","type":"address","internalType":"contract IRegistryCoordinator"}],"stateMutability":"view"},{"type":"function","name":"renounceOwnership","inputs":[],"outputs":[],"stateMutability":"nonpayable"},{"type":"function","name":"respondToTask","inputs":[{"name":"task","type":"tuple","internalType":"struct IHelloWorldServiceManager.Task","components":[{"name":"name","type":"string","internalType":"string"},{"name":"taskCreatedBlock","type":"uint32","internalType":"uint32"}]},{"name":"referenceTaskIndex","type":"uint32","internalType":"uint32"},{"name":"signature","type":"bytes","internalType":"bytes"}],"outputs":[],"stateMutability":"nonpayable"},{"type":"function","name":"setPauserRegistry","inputs":[{"name":"newPauserRegistry","type":"address","internalType":"contract IPauserRegistry"}],"outputs":[],"stateMutability":"nonpayable"},{"type":"function","name":"transferOwnership","inputs":[{"name":"newOwner","type":"address","internalType":"address"}],"outputs":[],"stateMutability":"nonpayable"},{"type":"function","name":"unpause","inputs":[{"name":"newPausedStatus","type":"uint256","internalType":"uint256"}],"outputs":[],"stateMutability":"nonpayable"},{"type":"function","name":"updateAVSMetadataURI","inputs":[{"name":"_metadataURI","type":"string","internalType":"string"}],"outputs":[],"stateMutability":"nonpayable"},{"type":"event","name":"Initialized","inputs":[{"name":"version","type":"uint8","indexed":false,"internalType":"uint8"}],"anonymous":false},{"type":"event","name":"NewTaskCreated","inputs":[{"name":"taskIndex","type":"uint32","indexed":true,"internalType":"uint32"},{"name":"task","type":"tuple","indexed":false,"internalType":"struct IHelloWorldServiceManager.Task","components":[{"name":"name","type":"string","internalType":"string"},{"name":"taskCreatedBlock","type":"uint32","internalType":"uint32"}]}],"anonymous":false},{"type":"event","name":"OwnershipTransferred","inputs":[{"name":"previousOwner","type":"address","indexed":true,"internalType":"address"},{"name":"newOwner","type":"address","indexed":true,"internalType":"address"}],"anonymous":false},{"type":"event","name":"Paused","inputs":[{"name":"account","type":"address","indexed":true,"internalType":"address"},{"name":"newPausedStatus","type":"uint256","indexed":false,"internalType":"uint256"}],"anonymous":false},{"type":"event","name":"PauserRegistrySet","inputs":[{"name":"pauserRegistry","type":"address","indexed":false,"internalType":"contract IPauserRegistry"},{"name":"newPauserRegistry","type":"address","indexed":false,"internalType":"contract IPauserRegistry"}],"anonymous":false},{"type":"event","name":"TaskResponded","inputs":[{"name":"taskIndex","type":"uint32","indexed":true,"internalType":"uint32"},{"name":"task","type":"tuple","indexed":false,"internalType":"struct IHelloWorldServiceManager.Task","components":[{"name":"name","type":"string","internalType":"string"},{"name":"taskCreatedBlock","type":"uint32","internalType":"uint32"}]},{"name":"operator","type":"address","indexed":false,"internalType":"address"}],"anonymous":false},{"type":"event","name":"Unpaused","inputs":[{"name":"account","type":"address","indexed":true,"internalType":"address"},{"name":"newPausedStatus","type":"uint256","indexed":false,"internalType":"uint256"}],"anonymous":false}],"bytecode":{"object":"0x6101006040523480156200001257600080fd5b5060405162002f7438038062002f7483398101604081905262000035916200016d565b6001600160a01b03808416608052600060a081905281841660c05290821660e052839083836200006462000092565b505060cc80546001600160a01b0319166001600160a01b03959095169490941790935550620001c192505050565b600054610100900460ff1615620000ff5760405162461bcd60e51b815260206004820152602760248201527f496e697469616c697a61626c653a20636f6e747261637420697320696e697469604482015266616c697a696e6760c81b606482015260840160405180910390fd5b60005460ff908116101562000152576000805460ff191660ff9081179091556040519081527f7f26b83ff96e1f2b6a682f133852f6798a09c465da95921460cefb38474024989060200160405180910390a15b565b6001600160a01b03811681146200016a57600080fd5b50565b6000806000606084860312156200018357600080fd5b8351620001908162000154565b6020850151909350620001a38162000154565b6040850151909250620001b68162000154565b809150509250925092565b60805160a05160c05160e051612d096200026b60003960008181610ac401528181610c1f01528181610cb60152818161160a0152818161178d015261182c0152600081816108ef0152818161097e015281816109fe015281816112f40152818161138a0152818161154501526116e80152600081816106b501528181610771015261085d01526000818161023801528181611348015281816113e601526114650152612d096000f3fe608060405234801561001057600080fd5b506004361061014d5760003560e01c8063715018a6116100c3578063a364f4da1161007c578063a364f4da146102fa578063a98fb3551461030d578063c20bab7f14610320578063e481af9d14610340578063f2fde38b14610348578063fabc1cbc1461035b57600080fd5b8063715018a61461028357806385edf8741461028b578063886f11951461029e5780638b00ce7c146102b15780638da5cb5b146102d65780639926ee7d146102e757600080fd5b80633415a49c116101155780633415a49c146101e0578063595c6a67146101f35780635ac86ab7146101fb5780635c975abb1461022e5780636b3aa72e146102365780636d14a9871461027057600080fd5b806310d67a2f14610152578063136439dd146101675780631b4455161461017a5780632d89f6fc1461018d57806333cfb7b7146101c0575b600080fd5b6101656101603660046120f2565b61036e565b005b610165610175366004612116565b61042a565b61016561018836600461212f565b610569565b6101ad61019b3660046121bc565b60ca6020526000908152604090205481565b6040519081526020015b60405180910390f35b6101d36101ce3660046120f2565b6108ca565b6040516101b791906121d7565b6101656101ee366004612224565b610d99565b610165611145565b61021e6102093660046122dd565b609854600160ff9092169190911b9081161490565b60405190151581526020016101b7565b6098546101ad565b7f00000000000000000000000000000000000000000000000000000000000000005b6040516001600160a01b0390911681526020016101b7565b60cc54610258906001600160a01b031681565b61016561120c565b6101656102993660046123ad565b611220565b609754610258906001600160a01b031681565b60c9546102c19063ffffffff1681565b60405163ffffffff90911681526020016101b7565b6033546001600160a01b0316610258565b6101656102f53660046123fd565b6112e9565b6101656103083660046120f2565b61137f565b61016561031b3660046123ad565b611446565b61033361032e3660046124a7565b61149a565b6040516101b79190612522565b6101d361153f565b6101656103563660046120f2565b61190b565b610165610369366004612116565b611981565b609760009054906101000a90046001600160a01b03166001600160a01b031663eab66d7a6040518163ffffffff1660e01b8152600401602060405180830381865afa1580156103c1573d6000803e3d6000fd5b505050506040513d601f19601f820116820180604052508101906103e59190612535565b6001600160a01b0316336001600160a01b03161461041e5760405162461bcd60e51b815260040161041590612552565b60405180910390fd5b61042781611add565b50565b60975460405163237dfb4760e11b81523360048201526001600160a01b03909116906346fbf68e90602401602060405180830381865afa158015610472573d6000803e3d6000fd5b505050506040513d601f19601f82011682018060405250810190610496919061259c565b6104b25760405162461bcd60e51b8152600401610415906125be565b6098548181161461052b5760405162461bcd60e51b815260206004820152603860248201527f5061757361626c652e70617573653a20696e76616c696420617474656d70742060448201527f746f20756e70617573652066756e6374696f6e616c69747900000000000000006064820152608401610415565b609881905560405181815233907fab40a374bc51de372200a8bc981af8c9ecdc08dfdaef0bb6e09f88f3c616ef3d906020015b60405180910390a250565b610571611bd4565b60005b818110156108455782828281811061058e5761058e612606565b90506020028101906105a0919061261c565b6105b19060408101906020016120f2565b6001600160a01b03166323b872dd33308686868181106105d3576105d3612606565b90506020028101906105e5919061261c565b604080516001600160e01b031960e087901b1681526001600160a01b039485166004820152939092166024840152013560448201526064016020604051808303816000875af115801561063c573d6000803e3d6000fd5b505050506040513d601f19601f82011682018060405250810190610660919061259c565b50600083838381811061067557610675612606565b9050602002810190610687919061261c565b6106989060408101906020016120f2565b604051636eb1769f60e11b81523060048201526001600160a01b037f000000000000000000000000000000000000000000000000000000000000000081166024830152919091169063dd62ed3e90604401602060405180830381865afa158015610706573d6000803e3d6000fd5b505050506040513d601f19601f8201168201806040525081019061072a9190612647565b905083838381811061073e5761073e612606565b9050602002810190610750919061261c565b6107619060408101906020016120f2565b6001600160a01b031663095ea7b37f0000000000000000000000000000000000000000000000000000000000000000838787878181106107a3576107a3612606565b90506020028101906107b5919061261c565b604001356107c39190612676565b6040516001600160e01b031960e085901b1681526001600160a01b03909216600483015260248201526044016020604051808303816000875af115801561080e573d6000803e3d6000fd5b505050506040513d601f19601f82011682018060405250810190610832919061259c565b50508061083e90612689565b9050610574565b50604051630da22a8b60e11b81526001600160a01b037f00000000000000000000000000000000000000000000000000000000000000001690631b445516906108949085908590600401612727565b600060405180830381600087803b1580156108ae57600080fd5b505af11580156108c2573d6000803e3d6000fd5b505050505050565b6040516309aa152760e11b81526001600160a01b0382811660048301526060916000917f000000000000000000000000000000000000000000000000000000000000000016906313542a4e90602401602060405180830381865afa158015610936573d6000803e3d6000fd5b505050506040513d601f19601f8201168201806040525081019061095a9190612647565b60405163871ef04960e01b8152600481018290529091506000906001600160a01b037f0000000000000000000000000000000000000000000000000000000000000000169063871ef04990602401602060405180830381865afa1580156109c5573d6000803e3d6000fd5b505050506040513d601f19601f820116820180604052508101906109e99190612835565b90506001600160c01b0381161580610a8357507f00000000000000000000000000000000000000000000000000000000000000006001600160a01b0316639aa1653d6040518163ffffffff1660e01b8152600401602060405180830381865afa158015610a5a573d6000803e3d6000fd5b505050506040513d601f19601f82011682018060405250810190610a7e919061285e565b60ff16155b15610a9f57505060408051600081526020810190915292915050565b6000610ab3826001600160c01b0316611c2e565b90506000805b8251811015610b89577f00000000000000000000000000000000000000000000000000000000000000006001600160a01b0316633ca5a5f5848381518110610b0357610b03612606565b01602001516040516001600160e01b031960e084901b16815260f89190911c6004820152602401602060405180830381865afa158015610b47573d6000803e3d6000fd5b505050506040513d601f19601f82011682018060405250810190610b6b9190612647565b610b759083612676565b915080610b8181612689565b915050610ab9565b506000816001600160401b03811115610ba457610ba46122fa565b604051908082528060200260200182016040528015610bcd578160200160208202803683370190505b5090506000805b8451811015610d8c576000858281518110610bf157610bf1612606565b0160200151604051633ca5a5f560e01b815260f89190911c6004820181905291506000906001600160a01b037f00000000000000000000000000000000000000000000000000000000000000001690633ca5a5f590602401602060405180830381865afa158015610c66573d6000803e3d6000fd5b505050506040513d601f19601f82011682018060405250810190610c8a9190612647565b905060005b81811015610d76576040516356e4026d60e11b815260ff84166004820152602481018290527f00000000000000000000000000000000000000000000000000000000000000006001600160a01b03169063adc804da906044016040805180830381865afa158015610d04573d6000803e3d6000fd5b505050506040513d601f19601f82011682018060405250810190610d28919061287b565b60000151868681518110610d3e57610d3e612606565b6001600160a01b039092166020928302919091019091015284610d6081612689565b9550508080610d6e90612689565b915050610c8f565b5050508080610d8490612689565b915050610bd4565b5090979650505050505050565b60cc54604051637e9c882d60e11b81523360048201526001916001600160a01b03169063fd39105a90602401602060405180830381865afa158015610de2573d6000803e3d6000fd5b505050506040513d601f19601f82011682018060405250810190610e0691906128ef565b6002811115610e1757610e176128d9565b14610e645760405162461bcd60e51b815260206004820152601b60248201527f4f70657261746f72206d757374206265207468652063616c6c657200000000006044820152606401610415565b63ffffffff8316600090815260ca6020908152604091829020549151610e8c91879101612996565b6040516020818303038152906040528051906020012014610f155760405162461bcd60e51b815260206004820152603d60248201527f737570706c696564207461736b20646f6573206e6f74206d617463682074686560448201527f206f6e65207265636f7264656420696e2074686520636f6e74726163740000006064820152608401610415565b33600090815260cb6020908152604080832063ffffffff8716845290915290208054610f40906129a9565b159050610fa25760405162461bcd60e51b815260206004820152602a60248201527f4f70657261746f722068617320616c726561647920726573706f6e64656420746044820152696f20746865207461736b60b01b6064820152608401610415565b6000610fae85806129e3565b604051602001610fbf929190612a29565b6040516020818303038152906040528051906020012090506000611030826040517f19457468657265756d205369676e6564204d6573736167653a0a3332000000006020820152603c8101829052600090605c01604051602081830303815290604052805190602001209050919050565b9050600061107685858080601f0160208091040260200160405190810160405280939291908181526020018383808284376000920191909152508693925050611cf09050565b90506001600160a01b03811633146110d05760405162461bcd60e51b815260206004820152601e60248201527f4d657373616765207369676e6572206973206e6f74206f70657261746f7200006044820152606401610415565b33600090815260cb6020908152604080832063ffffffff8a16845290915290206110fb858783612a97565b508563ffffffff167f8eb2d2fcccf5801e10ff58cd73e8781ba923122963789378771f03c1148b023e8833604051611134929190612b56565b60405180910390a250505050505050565b60975460405163237dfb4760e11b81523360048201526001600160a01b03909116906346fbf68e90602401602060405180830381865afa15801561118d573d6000803e3d6000fd5b505050506040513d601f19601f820116820180604052508101906111b1919061259c565b6111cd5760405162461bcd60e51b8152600401610415906125be565b600019609881905560405190815233907fab40a374bc51de372200a8bc981af8c9ecdc08dfdaef0bb6e09f88f3c616ef3d9060200160405180910390a2565b611214611bd4565b61121e6000611d16565b565b6040805180820182528281524363ffffffff166020808301919091529151909161124c91839101612b80565b60408051601f19818403018152828252805160209182012060c9805463ffffffff908116600090815260ca90945293909220555416907f58180a6a0403a63c2b5ce4b85d129d46a80d37851b2216bd0a98b59e7309b847906112af908490612b80565b60405180910390a260c9546112cb9063ffffffff166001612bb8565b60c9805463ffffffff191663ffffffff929092169190911790555050565b336001600160a01b037f000000000000000000000000000000000000000000000000000000000000000016146113315760405162461bcd60e51b815260040161041590612bdc565b604051639926ee7d60e01b81526001600160a01b037f00000000000000000000000000000000000000000000000000000000000000001690639926ee7d906108949085908590600401612c54565b336001600160a01b037f000000000000000000000000000000000000000000000000000000000000000016146113c75760405162461bcd60e51b815260040161041590612bdc565b6040516351b27a6d60e11b81526001600160a01b0382811660048301527f0000000000000000000000000000000000000000000000000000000000000000169063a364f4da906024015b600060405180830381600087803b15801561142b57600080fd5b505af115801561143f573d6000803e3d6000fd5b5050505050565b61144e611bd4565b60405163a98fb35560e01b81526001600160a01b037f0000000000000000000000000000000000000000000000000000000000000000169063a98fb35590611411908490600401612522565b60cb602090815260009283526040808420909152908252902080546114be906129a9565b80601f01602080910402602001604051908101604052809291908181526020018280546114ea906129a9565b80156115375780601f1061150c57610100808354040283529160200191611537565b820191906000526020600020905b81548152906001019060200180831161151a57829003601f168201915b505050505081565b606060007f00000000000000000000000000000000000000000000000000000000000000006001600160a01b0316639aa1653d6040518163ffffffff1660e01b8152600401602060405180830381865afa1580156115a1573d6000803e3d6000fd5b505050506040513d601f19601f820116820180604052508101906115c5919061285e565b60ff169050806000036115e657505060408051600081526020810190915290565b6000805b8281101561169b57604051633ca5a5f560e01b815260ff821660048201527f00000000000000000000000000000000000000000000000000000000000000006001600160a01b031690633ca5a5f590602401602060405180830381865afa158015611659573d6000803e3d6000fd5b505050506040513d601f19601f8201168201806040525081019061167d9190612647565b6116879083612676565b91508061169381612689565b9150506115ea565b506000816001600160401b038111156116b6576116b66122fa565b6040519080825280602002602001820160405280156116df578160200160208202803683370190505b5090506000805b7f00000000000000000000000000000000000000000000000000000000000000006001600160a01b0316639aa1653d6040518163ffffffff1660e01b8152600401602060405180830381865afa158015611744573d6000803e3d6000fd5b505050506040513d601f19601f82011682018060405250810190611768919061285e565b60ff1681101561190157604051633ca5a5f560e01b815260ff821660048201526000907f00000000000000000000000000000000000000000000000000000000000000006001600160a01b031690633ca5a5f590602401602060405180830381865afa1580156117dc573d6000803e3d6000fd5b505050506040513d601f19601f820116820180604052508101906118009190612647565b905060005b818110156118ec576040516356e4026d60e11b815260ff84166004820152602481018290527f00000000000000000000000000000000000000000000000000000000000000006001600160a01b03169063adc804da906044016040805180830381865afa15801561187a573d6000803e3d6000fd5b505050506040513d601f19601f8201168201806040525081019061189e919061287b565b600001518585815181106118b4576118b4612606565b6001600160a01b0390921660209283029190910190910152836118d681612689565b94505080806118e490612689565b915050611805565b505080806118f990612689565b9150506116e6565b5090949350505050565b611913611bd4565b6001600160a01b0381166119785760405162461bcd60e51b815260206004820152602660248201527f4f776e61626c653a206e6577206f776e657220697320746865207a65726f206160448201526564647265737360d01b6064820152608401610415565b61042781611d16565b609760009054906101000a90046001600160a01b03166001600160a01b031663eab66d7a6040518163ffffffff1660e01b8152600401602060405180830381865afa1580156119d4573d6000803e3d6000fd5b505050506040513d601f19601f820116820180604052508101906119f89190612535565b6001600160a01b0316336001600160a01b031614611a285760405162461bcd60e51b815260040161041590612552565b609854198119609854191614611aa65760405162461bcd60e51b815260206004820152603860248201527f5061757361626c652e756e70617573653a20696e76616c696420617474656d7060448201527f7420746f2070617573652066756e6374696f6e616c69747900000000000000006064820152608401610415565b609881905560405181815233907f3582d1828e26bf56bd801502bc021ac0bc8afb57c826e4986b45593c8fad389c9060200161055e565b6001600160a01b038116611b6b5760405162461bcd60e51b815260206004820152604960248201527f5061757361626c652e5f73657450617573657252656769737472793a206e657760448201527f50617573657252656769737472792063616e6e6f7420626520746865207a65726064820152686f206164647265737360b81b608482015260a401610415565b609754604080516001600160a01b03928316815291831660208301527f6e9fcd539896fca60e8b0f01dd580233e48a6b0f7df013b89ba7f565869acdb6910160405180910390a1609780546001600160a01b0319166001600160a01b0392909216919091179055565b6033546001600160a01b0316331461121e5760405162461bcd60e51b815260206004820181905260248201527f4f776e61626c653a2063616c6c6572206973206e6f7420746865206f776e65726044820152606401610415565b6060600080611c3c84611d68565b61ffff166001600160401b03811115611c5757611c576122fa565b6040519080825280601f01601f191660200182016040528015611c81576020820181803683370190505b5090506000805b825182108015611c99575061010081105b15611901576001811b935085841615611ce0578060f81b838381518110611cc257611cc2612606565b60200101906001600160f81b031916908160001a9053508160010191505b611ce981612689565b9050611c88565b6000806000611cff8585611d93565b91509150611d0c81611e01565b5090505b92915050565b603380546001600160a01b038381166001600160a01b0319831681179093556040519116919082907f8be0079c531659141344cd1fd0a4f28419497f9722a3daafe3b4186f6b6457e090600090a35050565b6000805b8215611d1057611d7d600184612c9f565b9092169180611d8b81612cb2565b915050611d6c565b6000808251604103611dc95760208301516040840151606085015160001a611dbd87828585611fb7565b94509450505050611dfa565b8251604003611df25760208301516040840151611de78683836120a4565b935093505050611dfa565b506000905060025b9250929050565b6000816004811115611e1557611e156128d9565b03611e1d5750565b6001816004811115611e3157611e316128d9565b03611e7e5760405162461bcd60e51b815260206004820152601860248201527f45434453413a20696e76616c6964207369676e617475726500000000000000006044820152606401610415565b6002816004811115611e9257611e926128d9565b03611edf5760405162461bcd60e51b815260206004820152601f60248201527f45434453413a20696e76616c6964207369676e6174757265206c656e677468006044820152606401610415565b6003816004811115611ef357611ef36128d9565b03611f4b5760405162461bcd60e51b815260206004820152602260248201527f45434453413a20696e76616c6964207369676e6174757265202773272076616c604482015261756560f01b6064820152608401610415565b6004816004811115611f5f57611f5f6128d9565b036104275760405162461bcd60e51b815260206004820152602260248201527f45434453413a20696e76616c6964207369676e6174757265202776272076616c604482015261756560f01b6064820152608401610415565b6000807f7fffffffffffffffffffffffffffffff5d576e7357a4501ddfe92f46681b20a0831115611fee575060009050600361209b565b8460ff16601b1415801561200657508460ff16601c14155b15612017575060009050600461209b565b6040805160008082526020820180845289905260ff881692820192909252606081018690526080810185905260019060a0016020604051602081039080840390855afa15801561206b573d6000803e3d6000fd5b5050604051601f1901519150506001600160a01b0381166120945760006001925092505061209b565b9150600090505b94509492505050565b6000806001600160ff1b038316816120c160ff86901c601b612676565b90506120cf87828885611fb7565b935093505050935093915050565b6001600160a01b038116811461042757600080fd5b60006020828403121561210457600080fd5b813561210f816120dd565b9392505050565b60006020828403121561212857600080fd5b5035919050565b6000806020838503121561214257600080fd5b82356001600160401b038082111561215957600080fd5b818501915085601f83011261216d57600080fd5b81358181111561217c57600080fd5b8660208260051b850101111561219157600080fd5b60209290920196919550909350505050565b803563ffffffff811681146121b757600080fd5b919050565b6000602082840312156121ce57600080fd5b61210f826121a3565b6020808252825182820181905260009190848201906040850190845b818110156122185783516001600160a01b0316835292840192918401916001016121f3565b50909695505050505050565b6000806000806060858703121561223a57600080fd5b84356001600160401b038082111561225157600080fd5b908601906040828903121561226557600080fd5b819550612274602088016121a3565b9450604087013591508082111561228a57600080fd5b818701915087601f83011261229e57600080fd5b8135818111156122ad57600080fd5b8860208285010111156122bf57600080fd5b95989497505060200194505050565b60ff8116811461042757600080fd5b6000602082840312156122ef57600080fd5b813561210f816122ce565b634e487b7160e01b600052604160045260246000fd5b604051606081016001600160401b0381118282101715612332576123326122fa565b60405290565b60006001600160401b0380841115612352576123526122fa565b604051601f8501601f19908116603f0116810190828211818310171561237a5761237a6122fa565b8160405280935085815286868601111561239357600080fd5b858560208301376000602087830101525050509392505050565b6000602082840312156123bf57600080fd5b81356001600160401b038111156123d557600080fd5b8201601f810184136123e657600080fd5b6123f584823560208401612338565b949350505050565b6000806040838503121561241057600080fd5b823561241b816120dd565b915060208301356001600160401b038082111561243757600080fd5b908401906060828703121561244b57600080fd5b612453612310565b82358281111561246257600080fd5b83019150601f8201871361247557600080fd5b61248487833560208501612338565b815260208301356020820152604083013560408201528093505050509250929050565b600080604083850312156124ba57600080fd5b82356124c5816120dd565b91506124d3602084016121a3565b90509250929050565b6000815180845260005b81811015612502576020818501810151868301820152016124e6565b506000602082860101526020601f19601f83011685010191505092915050565b60208152600061210f60208301846124dc565b60006020828403121561254757600080fd5b815161210f816120dd565b6020808252602a908201527f6d73672e73656e646572206973206e6f74207065726d697373696f6e6564206160408201526939903ab73830bab9b2b960b11b606082015260800190565b6000602082840312156125ae57600080fd5b8151801515811461210f57600080fd5b60208082526028908201527f6d73672e73656e646572206973206e6f74207065726d697373696f6e6564206160408201526739903830bab9b2b960c11b606082015260800190565b634e487b7160e01b600052603260045260246000fd5b60008235609e1983360301811261263257600080fd5b9190910192915050565b80356121b7816120dd565b60006020828403121561265957600080fd5b5051919050565b634e487b7160e01b600052601160045260246000fd5b80820180821115611d1057611d10612660565b60006001820161269b5761269b612660565b5060010190565b6bffffffffffffffffffffffff8116811461042757600080fd5b8183526000602080850194508260005b8581101561271c5781356126df816120dd565b6001600160a01b03168752818301356126f7816126a2565b6bffffffffffffffffffffffff168784015260409687019691909101906001016126cc565b509495945050505050565b60208082528181018390526000906040808401600586901b8501820187855b8881101561282757878303603f190184528135368b9003609e1901811261276c57600080fd5b8a0160a0813536839003601e1901811261278557600080fd5b820188810190356001600160401b038111156127a057600080fd5b8060061b36038213156127b257600080fd5b8287526127c283880182846126bc565b925050506127d188830161263c565b6001600160a01b031688860152818701358786015260606127f38184016121a3565b63ffffffff1690860152608061280a8382016121a3565b63ffffffff16950194909452509285019290850190600101612746565b509098975050505050505050565b60006020828403121561284757600080fd5b81516001600160c01b038116811461210f57600080fd5b60006020828403121561287057600080fd5b815161210f816122ce565b60006040828403121561288d57600080fd5b604051604081018181106001600160401b03821117156128af576128af6122fa565b60405282516128bd816120dd565b815260208301516128cd816126a2565b60208201529392505050565b634e487b7160e01b600052602160045260246000fd5b60006020828403121561290157600080fd5b81516003811061210f57600080fd5b60008135601e1983360301811261292657600080fd5b82016020810190356001600160401b0381111561294257600080fd5b80360382131561295157600080fd5b604085528060408601528082606087013760006060828701015263ffffffff61297c602086016121a3565b166020860152601f01601f19169093016060019392505050565b60208152600061210f6020830184612910565b600181811c908216806129bd57607f821691505b6020821081036129dd57634e487b7160e01b600052602260045260246000fd5b50919050565b6000808335601e198436030181126129fa57600080fd5b8301803591506001600160401b03821115612a1457600080fd5b602001915036819003821315611dfa57600080fd5b6602432b6363796160cd1b81528183600783013760009101600701908152919050565b601f821115612a9257600081815260208120601f850160051c81016020861015612a735750805b601f850160051c820191505b818110156108c257828155600101612a7f565b505050565b6001600160401b03831115612aae57612aae6122fa565b612ac283612abc83546129a9565b83612a4c565b6000601f841160018114612af65760008515612ade5750838201355b600019600387901b1c1916600186901b17835561143f565b600083815260209020601f19861690835b82811015612b275786850135825560209485019460019092019101612b07565b5086821015612b445760001960f88860031b161c19848701351681555b505060018560011b0183555050505050565b604081526000612b696040830185612910565b905060018060a01b03831660208301529392505050565b602081526000825160406020840152612b9c60608401826124dc565b905063ffffffff60208501511660408401528091505092915050565b63ffffffff818116838216019080821115612bd557612bd5612660565b5092915050565b60208082526052908201527f536572766963654d616e61676572426173652e6f6e6c7952656769737472794360408201527f6f6f7264696e61746f723a2063616c6c6572206973206e6f742074686520726560608201527133b4b9ba393c9031b7b7b93234b730ba37b960711b608082015260a00190565b60018060a01b0383168152604060208201526000825160606040840152612c7e60a08401826124dc565b90506020840151606084015260408401516080840152809150509392505050565b81810381811115611d1057611d10612660565b600061ffff808316818103612cc957612cc9612660565b600101939250505056fea2646970667358221220dc02d2c5c374959d44c4e13f05f4ddf97135c5559761d61b70ef4f4a9717e09964736f6c63430008150033","linkReferences":{}},"methodIdentifiers":{"allTaskHashes(uint32)":"2d89f6fc","allTaskResponses(address,uint32)":"c20bab7f","avsDirectory()":"6b3aa72e","createNewTask(string)":"85edf874","deregisterOperatorFromAVS(address)":"a364f4da","getOperatorRestakedStrategies(address)":"33cfb7b7","getRestakeableStrategies()":"e481af9d","latestTaskNum()":"8b00ce7c","owner()":"8da5cb5b","pause(uint256)":"136439dd","pauseAll()":"595c6a67","paused()":"5c975abb","paused(uint8)":"5ac86ab7","pauserRegistry()":"886f1195","payForRange(((address,uint96)[],address,uint256,uint32,uint32)[])":"1b445516","registerOperatorToAVS(address,(bytes,bytes32,uint256))":"9926ee7d","registryCoordinator()":"6d14a987","renounceOwnership()":"715018a6","respondToTask((string,uint32),uint32,bytes)":"3415a49c","setPauserRegistry(address)":"10d67a2f","transferOwnership(address)":"f2fde38b","unpause(uint256)":"fabc1cbc","updateAVSMetadataURI(string)":"a98fb355"},"id":40}