{"abi":[{"type":"constructor","inputs":[{"name":"_serviceManager","type":"address","internalType":"contract IServiceManager"},{"name":"_stakeRegistry","type":"address","internalType":"contract IStakeRegistry"},{"name":"_blsApkRegistry","type":"address","internalType":"contract IBLSApkRegistry"},{"name":"_indexRegistry","type":"address","internalType":"contract IIndexRegistry"}],"stateMutability":"nonpayable"},{"type":"function","name":"OPERATOR_CHURN_APPROVAL_TYPEHASH","inputs":[],"outputs":[{"name":"","type":"bytes32","internalType":"bytes32"}],"stateMutability":"view"},{"type":"function","name":"PUBKEY_REGISTRATION_TYPEHASH","inputs":[],"outputs":[{"name":"","type":"bytes32","internalType":"bytes32"}],"stateMutability":"view"},{"type":"function","name":"blsApkRegistry","inputs":[],"outputs":[{"name":"","type":"address","internalType":"contract IBLSApkRegistry"}],"stateMutability":"view"},{"type":"function","name":"calculateOperatorChurnApprovalDigestHash","inputs":[{"name":"registeringOperator","type":"address","internalType":"address"},{"name":"registeringOperatorId","type":"bytes32","internalType":"bytes32"},{"name":"operatorKickParams","type":"tuple[]","internalType":"struct IRegistryCoordinator.OperatorKickParam[]","components":[{"name":"quorumNumber","type":"uint8","internalType":"uint8"},{"name":"operator","type":"address","internalType":"address"}]},{"name":"salt","type":"bytes32","internalType":"bytes32"},{"name":"expiry","type":"uint256","internalType":"uint256"}],"outputs":[{"name":"","type":"bytes32","internalType":"bytes32"}],"stateMutability":"view"},{"type":"function","name":"churnApprover","inputs":[],"outputs":[{"name":"","type":"address","internalType":"address"}],"stateMutability":"view"},{"type":"function","name":"createQuorum","inputs":[{"name":"operatorSetParams","type":"tuple","internalType":"struct IRegistryCoordinator.OperatorSetParam","components":[{"name":"maxOperatorCount","type":"uint32","internalType":"uint32"},{"name":"kickBIPsOfOperatorStake","type":"uint16","internalType":"uint16"},{"name":"kickBIPsOfTotalStake","type":"uint16","internalType":"uint16"}]},{"name":"minimumStake","type":"uint96","internalType":"uint96"},{"name":"strategyParams","type":"tuple[]","internalType":"struct IStakeRegistry.StrategyParams[]","components":[{"name":"strategy","type":"address","internalType":"contract IStrategy"},{"name":"multiplier","type":"uint96","internalType":"uint96"}]}],"outputs":[],"stateMutability":"nonpayable"},{"type":"function","name":"deregisterOperator","inputs":[{"name":"quorumNumbers","type":"bytes","internalType":"bytes"}],"outputs":[],"stateMutability":"nonpayable"},{"type":"function","name":"ejectOperator","inputs":[{"name":"operator","type":"address","internalType":"address"},{"name":"quorumNumbers","type":"bytes","internalType":"bytes"}],"outputs":[],"stateMutability":"nonpayable"},{"type":"function","name":"ejectionCooldown","inputs":[],"outputs":[{"name":"","type":"uint256","internalType":"uint256"}],"stateMutability":"view"},{"type":"function","name":"ejector","inputs":[],"outputs":[{"name":"","type":"address","internalType":"address"}],"stateMutability":"view"},{"type":"function","name":"getCurrentQuorumBitmap","inputs":[{"name":"operatorId","type":"bytes32","internalType":"bytes32"}],"outputs":[{"name":"","type":"uint192","internalType":"uint192"}],"stateMutability":"view"},{"type":"function","name":"getOperator","inputs":[{"name":"operator","type":"address","internalType":"address"}],"outputs":[{"name":"","type":"tuple","internalType":"struct IRegistryCoordinator.OperatorInfo","components":[{"name":"operatorId","type":"bytes32","internalType":"bytes32"},{"name":"status","type":"uint8","internalType":"enum IRegistryCoordinator.OperatorStatus"}]}],"stateMutability":"view"},{"type":"function","name":"getOperatorFromId","inputs":[{"name":"operatorId","type":"bytes32","internalType":"bytes32"}],"outputs":[{"name":"","type":"address","internalType":"address"}],"stateMutability":"view"},{"type":"function","name":"getOperatorId","inputs":[{"name":"operator","type":"address","internalType":"address"}],"outputs":[{"name":"","type":"bytes32","internalType":"bytes32"}],"stateMutability":"view"},{"type":"function","name":"getOperatorSetParams","inputs":[{"name":"quorumNumber","type":"uint8","internalType":"uint8"}],"outputs":[{"name":"","type":"tuple","internalType":"struct IRegistryCoordinator.OperatorSetParam","components":[{"name":"maxOperatorCount","type":"uint32","internalType":"uint32"},{"name":"kickBIPsOfOperatorStake","type":"uint16","internalType":"uint16"},{"name":"kickBIPsOfTotalStake","type":"uint16","internalType":"uint16"}]}],"stateMutability":"view"},{"type":"function","name":"getOperatorStatus","inputs":[{"name":"operator","type":"address","internalType":"address"}],"outputs":[{"name":"","type":"uint8","internalType":"enum IRegistryCoordinator.OperatorStatus"}],"stateMutability":"view"},{"type":"function","name":"getQuorumBitmapAtBlockNumberByIndex","inputs":[{"name":"operatorId","type":"bytes32","internalType":"bytes32"},{"name":"blockNumber","type":"uint32","internalType":"uint32"},{"name":"index","type":"uint256","internalType":"uint256"}],"outputs":[{"name":"","type":"uint192","internalType":"uint192"}],"stateMutability":"view"},{"type":"function","name":"getQuorumBitmapHistoryLength","inputs":[{"name":"operatorId","type":"bytes32","internalType":"bytes32"}],"outputs":[{"name":"","type":"uint256","internalType":"uint256"}],"stateMutability":"view"},{"type":"function","name":"getQuorumBitmapIndicesAtBlockNumber","inputs":[{"name":"blockNumber","type":"uint32","internalType":"uint32"},{"name":"operatorIds","type":"bytes32[]","internalType":"bytes32[]"}],"outputs":[{"name":"","type":"uint32[]","internalType":"uint32[]"}],"stateMutability":"view"},{"type":"function","name":"getQuorumBitmapUpdateByIndex","inputs":[{"name":"operatorId","type":"bytes32","internalType":"bytes32"},{"name":"index","type":"uint256","internalType":"uint256"}],"outputs":[{"name":"","type":"tuple","internalType":"struct IRegistryCoordinator.QuorumBitmapUpdate","components":[{"name":"updateBlockNumber","type":"uint32","internalType":"uint32"},{"name":"nextUpdateBlockNumber","type":"uint32","internalType":"uint32"},{"name":"quorumBitmap","type":"uint192","internalType":"uint192"}]}],"stateMutability":"view"},{"type":"function","name":"indexRegistry","inputs":[],"outputs":[{"name":"","type":"address","internalType":"contract IIndexRegistry"}],"stateMutability":"view"},{"type":"function","name":"initialize","inputs":[{"name":"_initialOwner","type":"address","internalType":"address"},{"name":"_churnApprover","type":"address","internalType":"address"},{"name":"_ejector","type":"address","internalType":"address"},{"name":"_pauserRegistry","type":"address","internalType":"contract IPauserRegistry"},{"name":"_initialPausedStatus","type":"uint256","internalType":"uint256"},{"name":"_operatorSetParams","type":"tuple[]","internalType":"struct IRegistryCoordinator.OperatorSetParam[]","components":[{"name":"maxOperatorCount","type":"uint32","internalType":"uint32"},{"name":"kickBIPsOfOperatorStake","type":"uint16","internalType":"uint16"},{"name":"kickBIPsOfTotalStake","type":"uint16","internalType":"uint16"}]},{"name":"_minimumStakes","type":"uint96[]","internalType":"uint96[]"},{"name":"_strategyParams","type":"tuple[][]","internalType":"struct IStakeRegistry.StrategyParams[][]","components":[{"name":"strategy","type":"address","internalType":"contract IStrategy"},{"name":"multiplier","type":"uint96","internalType":"uint96"}]}],"outputs":[],"stateMutability":"nonpayable"},{"type":"function","name":"isChurnApproverSaltUsed","inputs":[{"name":"","type":"bytes32","internalType":"bytes32"}],"outputs":[{"name":"","type":"bool","internalType":"bool"}],"stateMutability":"view"},{"type":"function","name":"lastEjectionTimestamp","inputs":[{"name":"","type":"address","internalType":"address"}],"outputs":[{"name":"","type":"uint256","internalType":"uint256"}],"stateMutability":"view"},{"type":"function","name":"numRegistries","inputs":[],"outputs":[{"name":"","type":"uint256","internalType":"uint256"}],"stateMutability":"view"},{"type":"function","name":"owner","inputs":[],"outputs":[{"name":"","type":"address","internalType":"address"}],"stateMutability":"view"},{"type":"function","name":"pause","inputs":[{"name":"newPausedStatus","type":"uint256","internalType":"uint256"}],"outputs":[],"stateMutability":"nonpayable"},{"type":"function","name":"pauseAll","inputs":[],"outputs":[],"stateMutability":"nonpayable"},{"type":"function","name":"paused","inputs":[{"name":"index","type":"uint8","internalType":"uint8"}],"outputs":[{"name":"","type":"bool","internalType":"bool"}],"stateMutability":"view"},{"type":"function","name":"paused","inputs":[],"outputs":[{"name":"","type":"uint256","internalType":"uint256"}],"stateMutability":"view"},{"type":"function","name":"pauserRegistry","inputs":[],"outputs":[{"name":"","type":"address","internalType":"contract IPauserRegistry"}],"stateMutability":"view"},{"type":"function","name":"pubkeyRegistrationMessageHash","inputs":[{"name":"operator","type":"address","internalType":"address"}],"outputs":[{"name":"","type":"tuple","internalType":"struct BN254.G1Point","components":[{"name":"X","type":"uint256","internalType":"uint256"},{"name":"Y","type":"uint256","internalType":"uint256"}]}],"stateMutability":"view"},{"type":"function","name":"quorumCount","inputs":[],"outputs":[{"name":"","type":"uint8","internalType":"uint8"}],"stateMutability":"view"},{"type":"function","name":"quorumUpdateBlockNumber","inputs":[{"name":"","type":"uint8","internalType":"uint8"}],"outputs":[{"name":"","type":"uint256","internalType":"uint256"}],"stateMutability":"view"},{"type":"function","name":"registerOperator","inputs":[{"name":"quorumNumbers","type":"bytes","internalType":"bytes"},{"name":"socket","type":"string","internalType":"string"},{"name":"params","type":"tuple","internalType":"struct IBLSApkRegistry.PubkeyRegistrationParams","components":[{"name":"pubkeyRegistrationSignature","type":"tuple","internalType":"struct BN254.G1Point","components":[{"name":"X","type":"uint256","internalType":"uint256"},{"name":"Y","type":"uint256","internalType":"uint256"}]},{"name":"pubkeyG1","type":"tuple","internalType":"struct BN254.G1Point","components":[{"name":"X","type":"uint256","internalType":"uint256"},{"name":"Y","type":"uint256","internalType":"uint256"}]},{"name":"pubkeyG2","type":"tuple","internalType":"struct BN254.G2Point","components":[{"name":"X","type":"uint256[2]","internalType":"uint256[2]"},{"name":"Y","type":"uint256[2]","internalType":"uint256[2]"}]}]},{"name":"operatorSignature","type":"tuple","internalType":"struct ISignatureUtils.SignatureWithSaltAndExpiry","components":[{"name":"signature","type":"bytes","internalType":"bytes"},{"name":"salt","type":"bytes32","internalType":"bytes32"},{"name":"expiry","type":"uint256","internalType":"uint256"}]}],"outputs":[],"stateMutability":"nonpayable"},{"type":"function","name":"registerOperatorWithChurn","inputs":[{"name":"quorumNumbers","type":"bytes","internalType":"bytes"},{"name":"socket","type":"string","internalType":"string"},{"name":"params","type":"tuple","internalType":"struct IBLSApkRegistry.PubkeyRegistrationParams","components":[{"name":"pubkeyRegistrationSignature","type":"tuple","internalType":"struct BN254.G1Point","components":[{"name":"X","type":"uint256","internalType":"uint256"},{"name":"Y","type":"uint256","internalType":"uint256"}]},{"name":"pubkeyG1","type":"tuple","internalType":"struct BN254.G1Point","components":[{"name":"X","type":"uint256","internalType":"uint256"},{"name":"Y","type":"uint256","internalType":"uint256"}]},{"name":"pubkeyG2","type":"tuple","internalType":"struct BN254.G2Point","components":[{"name":"X","type":"uint256[2]","internalType":"uint256[2]"},{"name":"Y","type":"uint256[2]","internalType":"uint256[2]"}]}]},{"name":"operatorKickParams","type":"tuple[]","internalType":"struct IRegistryCoordinator.OperatorKickParam[]","components":[{"name":"quorumNumber","type":"uint8","internalType":"uint8"},{"name":"operator","type":"address","internalType":"address"}]},{"name":"churnApproverSignature","type":"tuple","internalType":"struct ISignatureUtils.SignatureWithSaltAndExpiry","components":[{"name":"signature","type":"bytes","internalType":"bytes"},{"name":"salt","type":"bytes32","internalType":"bytes32"},{"name":"expiry","type":"uint256","internalType":"uint256"}]},{"name":"operatorSignature","type":"tuple","internalType":"struct ISignatureUtils.SignatureWithSaltAndExpiry","components":[{"name":"signature","type":"bytes","internalType":"bytes"},{"name":"salt","type":"bytes32","internalType":"bytes32"},{"name":"expiry","type":"uint256","internalType":"uint256"}]}],"outputs":[],"stateMutability":"nonpayable"},{"type":"function","name":"registries","inputs":[{"name":"","type":"uint256","internalType":"uint256"}],"outputs":[{"name":"","type":"address","internalType":"address"}],"stateMutability":"view"},{"type":"function","name":"renounceOwnership","inputs":[],"outputs":[],"stateMutability":"nonpayable"},{"type":"function","name":"serviceManager","inputs":[],"outputs":[{"name":"","type":"address","internalType":"contract IServiceManager"}],"stateMutability":"view"},{"type":"function","name":"setChurnApprover","inputs":[{"name":"_churnApprover","type":"address","internalType":"address"}],"outputs":[],"stateMutability":"nonpayable"},{"type":"function","name":"setEjectionCooldown","inputs":[{"name":"_ejectionCooldown","type":"uint256","internalType":"uint256"}],"outputs":[],"stateMutability":"nonpayable"},{"type":"function","name":"setEjector","inputs":[{"name":"_ejector","type":"address","internalType":"address"}],"outputs":[],"stateMutability":"nonpayable"},{"type":"function","name":"setOperatorSetParams","inputs":[{"name":"quorumNumber","type":"uint8","internalType":"uint8"},{"name":"operatorSetParams","type":"tuple","internalType":"struct IRegistryCoordinator.OperatorSetParam","components":[{"name":"maxOperatorCount","type":"uint32","internalType":"uint32"},{"name":"kickBIPsOfOperatorStake","type":"uint16","internalType":"uint16"},{"name":"kickBIPsOfTotalStake","type":"uint16","internalType":"uint16"}]}],"outputs":[],"stateMutability":"nonpayable"},{"type":"function","name":"setPauserRegistry","inputs":[{"name":"newPauserRegistry","type":"address","internalType":"contract IPauserRegistry"}],"outputs":[],"stateMutability":"nonpayable"},{"type":"function","name":"stakeRegistry","inputs":[],"outputs":[{"name":"","type":"address","internalType":"contract IStakeRegistry"}],"stateMutability":"view"},{"type":"function","name":"transferOwnership","inputs":[{"name":"newOwner","type":"address","internalType":"address"}],"outputs":[],"stateMutability":"nonpayable"},{"type":"function","name":"unpause","inputs":[{"name":"newPausedStatus","type":"uint256","internalType":"uint256"}],"outputs":[],"stateMutability":"nonpayable"},{"type":"function","name":"updateOperators","inputs":[{"name":"operators","type":"address[]","internalType":"address[]"}],"outputs":[],"stateMutability":"nonpayable"},{"type":"function","name":"updateOperatorsForQuorum","inputs":[{"name":"operatorsPerQuorum","type":"address[][]","internalType":"address[][]"},{"name":"quorumNumbers","type":"bytes","internalType":"bytes"}],"outputs":[],"stateMutability":"nonpayable"},{"type":"function","name":"updateSocket","inputs":[{"name":"socket","type":"string","internalType":"string"}],"outputs":[],"stateMutability":"nonpayable"},{"type":"event","name":"ChurnApproverUpdated","inputs":[{"name":"prevChurnApprover","type":"address","indexed":false,"internalType":"address"},{"name":"newChurnApprover","type":"address","indexed":false,"internalType":"address"}],"anonymous":false},{"type":"event","name":"EjectorUpdated","inputs":[{"name":"prevEjector","type":"address","indexed":false,"internalType":"address"},{"name":"newEjector","type":"address","indexed":false,"internalType":"address"}],"anonymous":false},{"type":"event","name":"Initialized","inputs":[{"name":"version","type":"uint8","indexed":false,"internalType":"uint8"}],"anonymous":false},{"type":"event","name":"OperatorDeregistered","inputs":[{"name":"operator","type":"address","indexed":true,"internalType":"address"},{"name":"operatorId","type":"bytes32","indexed":true,"internalType":"bytes32"}],"anonymous":false},{"type":"event","name":"OperatorRegistered","inputs":[{"name":"operator","type":"address","indexed":true,"internalType":"address"},{"name":"operatorId","type":"bytes32","indexed":true,"internalType":"bytes32"}],"anonymous":false},{"type":"event","name":"OperatorSetParamsUpdated","inputs":[{"name":"quorumNumber","type":"uint8","indexed":true,"internalType":"uint8"},{"name":"operatorSetParams","type":"tuple","indexed":false,"internalType":"struct IRegistryCoordinator.OperatorSetParam","components":[{"name":"maxOperatorCount","type":"uint32","internalType":"uint32"},{"name":"kickBIPsOfOperatorStake","type":"uint16","internalType":"uint16"},{"name":"kickBIPsOfTotalStake","type":"uint16","internalType":"uint16"}]}],"anonymous":false},{"type":"event","name":"OperatorSocketUpdate","inputs":[{"name":"operatorId","type":"bytes32","indexed":true,"internalType":"bytes32"},{"name":"socket","type":"string","indexed":false,"internalType":"string"}],"anonymous":false},{"type":"event","name":"OwnershipTransferred","inputs":[{"name":"previousOwner","type":"address","indexed":true,"internalType":"address"},{"name":"newOwner","type":"address","indexed":true,"internalType":"address"}],"anonymous":false},{"type":"event","name":"Paused","inputs":[{"name":"account","type":"address","indexed":true,"internalType":"address"},{"name":"newPausedStatus","type":"uint256","indexed":false,"internalType":"uint256"}],"anonymous":false},{"type":"event","name":"PauserRegistrySet","inputs":[{"name":"pauserRegistry","type":"address","indexed":false,"internalType":"contract IPauserRegistry"},{"name":"newPauserRegistry","type":"address","indexed":false,"internalType":"contract IPauserRegistry"}],"anonymous":false},{"type":"event","name":"QuorumBlockNumberUpdated","inputs":[{"name":"quorumNumber","type":"uint8","indexed":true,"internalType":"uint8"},{"name":"blocknumber","type":"uint256","indexed":false,"internalType":"uint256"}],"anonymous":false},{"type":"event","name":"Unpaused","inputs":[{"name":"account","type":"address","indexed":true,"internalType":"address"},{"name":"newPausedStatus","type":"uint256","indexed":false,"internalType":"uint256"}],"anonymous":false}],"bytecode":{"object":"0x6101c06040523480156200001257600080fd5b506040516200634d3803806200634d833981016040819052620000359162000254565b604080518082018252601681527f4156535265676973747279436f6f7264696e61746f720000000000000000000060208083019182528351808501909452600684526576302e302e3160d01b908401528151902060e08190527f6bda7e3f385e48841048390444cced5cc795af87758af67622e5f4f0882c4a996101008190524660a05287938793879387939192917f8b73c3c69bb8fe3d512ecc4cf759cc79239f7b179b0ffacaa9a75d522b39400f620001358184846040805160208101859052908101839052606081018290524660808201523060a082015260009060c0016040516020818303038152906040528051906020012090509392505050565b6080523060c05261012052505050506001600160a01b039384166101405291831661018052821661016052166101a0526200016f62000179565b50505050620002bc565b600054610100900460ff1615620001e65760405162461bcd60e51b815260206004820152602760248201527f496e697469616c697a61626c653a20636f6e747261637420697320696e697469604482015266616c697a696e6760c81b606482015260840160405180910390fd5b60005460ff908116101562000239576000805460ff191660ff9081179091556040519081527f7f26b83ff96e1f2b6a682f133852f6798a09c465da95921460cefb38474024989060200160405180910390a15b565b6001600160a01b03811681146200025157600080fd5b50565b600080600080608085870312156200026b57600080fd5b845162000278816200023b565b60208601519094506200028b816200023b565b60408601519093506200029e816200023b565b6060860151909250620002b1816200023b565b939692955090935050565b60805160a05160c05160e05161010051610120516101405161016051610180516101a051615f89620003c4600039600081816106ab0152818161119b0152818161216e01528181612ea10152818161375c0152613d330152600081816105f0015281816120f9015281816125a301528181612e21015281816136b3015281816139080152613cb20152600081816105b601528181610f370152818161213701528181612da301528181612f8901528181613003015281816136330152613daf0152600081816104fa01528181612cf9015261357b01526000613fb60152600061400501526000613fe001526000613f3901526000613f6301526000613f8d0152615f896000f3fe608060405234801561001057600080fd5b50600436106102d55760003560e01c80635df45946116101825780639feab859116100e9578063d72d8dd6116100a2578063e65797ad1161007c578063e65797ad14610798578063f2fde38b1461083b578063fabc1cbc1461084e578063fd39105a1461086157600080fd5b8063d72d8dd61461076a578063d75b4c8814610772578063dd8283f31461078557600080fd5b80639feab859146106cd578063a50857bf146106f4578063a96f783e14610707578063c391425e14610710578063ca0de88214610730578063ca4f2d971461075757600080fd5b8063871ef0491161013b578063871ef04914610640578063886f1195146106535780638da5cb5b1461066c5780639aa1653d146106745780639b5d177b146106935780639e9923c2146106a657600080fd5b80635df45946146105b15780636347c900146105d857806368304835146105eb5780636e3b17db14610612578063715018a61461062557806384ca52131461062d57600080fd5b8063249a0c42116102415780633c2a7f4c116101fa578063595c6a67116101d4578063595c6a671461056f5780635ac86ab7146105775780635b0b829f146105965780635c975abb146105a957600080fd5b80633c2a7f4c1461051c5780635140a5481461053c5780635865c60c1461054f57600080fd5b8063249a0c421461048957806328f61b31146104a9578063296bb064146104bc57806329d1e0c3146104cf5780632cdd1e86146104e25780633998fdd3146104f557600080fd5b806310d67a2f1161029357806310d67a2f1461039e578063125e0584146103b157806313542a4e146103d1578063136439dd146103fa5780631478851f1461040d5780631eb812da1461044057600080fd5b8062cf2ab5146102da57806303fd3492146102ef57806304ec635114610322578063054310e61461034d5780630cf4b767146103785780630d3f21341461038b575b600080fd5b6102ed6102e8366004614aad565b61089d565b005b61030f6102fd366004614aee565b60009081526098602052604090205490565b6040519081526020015b60405180910390f35b610335610330366004614b19565b6109b2565b6040516001600160c01b039091168152602001610319565b609d54610360906001600160a01b031681565b6040516001600160a01b039091168152602001610319565b6102ed610386366004614c38565b610ba8565b6102ed610399366004614aee565b610c90565b6102ed6103ac366004614cad565b610c9d565b61030f6103bf366004614cad565b609f6020526000908152604090205481565b61030f6103df366004614cad565b6001600160a01b031660009081526099602052604090205490565b6102ed610408366004614aee565b610d50565b61043061041b366004614aee565b609a6020526000908152604090205460ff1681565b6040519015158152602001610319565b61045361044e366004614cca565b610e8d565b60408051825163ffffffff908116825260208085015190911690820152918101516001600160c01b031690820152606001610319565b61030f610497366004614cfd565b609b6020526000908152604090205481565b609e54610360906001600160a01b031681565b6103606104ca366004614aee565b610f1e565b6102ed6104dd366004614cad565b610faa565b6102ed6104f0366004614cad565b610fbb565b6103607f000000000000000000000000000000000000000000000000000000000000000081565b61052f61052a366004614cad565b610fcc565b6040516103199190614d18565b6102ed61054a366004614d70565b61104b565b61056261055d366004614cad565b61155b565b6040516103199190614e13565b6102ed6115cf565b610430610585366004614cfd565b6001805460ff9092161b9081161490565b6102ed6105a4366004614e98565b61169b565b60015461030f565b6103607f000000000000000000000000000000000000000000000000000000000000000081565b6103606105e6366004614aee565b611732565b6103607f000000000000000000000000000000000000000000000000000000000000000081565b6102ed610620366004614ecc565b61175c565b6102ed6118ea565b61030f61063b366004614f83565b6118fe565b61033561064e366004614aee565b611948565b600054610360906201000090046001600160a01b031681565b610360611953565b6096546106819060ff1681565b60405160ff9091168152602001610319565b6102ed6106a136600461511c565b61196c565b6103607f000000000000000000000000000000000000000000000000000000000000000081565b61030f7f2bd82124057f0913bc3b772ce7b83e8057c1ad1f3510fc83778be20f10ec5de681565b6102ed610702366004615215565b611ca3565b61030f60a05481565b61072361071e3660046152bd565b611e26565b6040516103199190615362565b61030f7f4d404e3276e7ac2163d8ee476afa6a41d1f68fb71f2d8b6546b24e55ce01b72a81565b6102ed6107653660046153ac565b611edf565b609c5461030f565b6102ed610780366004615492565b611f45565b6102ed610793366004615645565b611f58565b6108076107a6366004614cfd565b60408051606080820183526000808352602080840182905292840181905260ff9490941684526097825292829020825193840183525463ffffffff8116845261ffff600160201b8204811692850192909252600160301b9004169082015290565b60408051825163ffffffff16815260208084015161ffff908116918301919091529282015190921690820152606001610319565b6102ed610849366004614cad565b61225c565b6102ed61085c366004614aee565b6122d2565b61089061086f366004614cad565b6001600160a01b031660009081526099602052604090206001015460ff1690565b6040516103199190615719565b6001546002906004908116036108ce5760405162461bcd60e51b81526004016108c590615727565b60405180910390fd5b60005b828110156109ac5760008484838181106108ed576108ed61575e565b90506020020160208101906109029190614cad565b6001600160a01b03811660009081526099602090815260408083208151808301909252805482526001810154949550929390929183019060ff16600281111561094d5761094d614ddb565b600281111561095e5761095e614ddb565b905250805190915060006109718261242e565b90506000610987826001600160c01b0316612499565b9050610994858583612565565b505050505080806109a49061578a565b9150506108d1565b50505050565b60008381526098602052604081208054829190849081106109d5576109d561575e565b600091825260209182902060408051606081018252929091015463ffffffff808216808552600160201b8304821695850195909552600160401b9091046001600160c01b03169183019190915290925085161015610acf5760405162461bcd60e51b815260206004820152606560248201527f5265676973747279436f6f7264696e61746f722e67657451756f72756d42697460448201527f6d61704174426c6f636b4e756d6265724279496e6465783a2071756f72756d4260648201527f69746d61705570646174652069732066726f6d20616674657220626c6f636b4e6084820152643ab6b132b960d91b60a482015260c4016108c5565b602081015163ffffffff161580610af55750806020015163ffffffff168463ffffffff16105b610b9c5760405162461bcd60e51b815260206004820152606660248201527f5265676973747279436f6f7264696e61746f722e67657451756f72756d42697460448201527f6d61704174426c6f636b4e756d6265724279496e6465783a2071756f72756d4260648201527f69746d61705570646174652069732066726f6d206265666f726520626c6f636b608482015265273ab6b132b960d11b60a482015260c4016108c5565b60400151949350505050565b60013360009081526099602052604090206001015460ff166002811115610bd157610bd1614ddb565b14610c445760405162461bcd60e51b815260206004820152603c60248201527f5265676973747279436f6f7264696e61746f722e757064617465536f636b657460448201527f3a206f70657261746f72206973206e6f7420726567697374657265640000000060648201526084016108c5565b33600090815260996020526040908190205490517fec2963ab21c1e50e1e582aa542af2e4bf7bf38e6e1403c27b42e1c5d6e621eaa90610c859084906157e9565b60405180910390a250565b610c98612652565b60a055565b600060029054906101000a90046001600160a01b03166001600160a01b031663eab66d7a6040518163ffffffff1660e01b8152600401602060405180830381865afa158015610cf0573d6000803e3d6000fd5b505050506040513d601f19601f82011682018060405250810190610d1491906157fc565b6001600160a01b0316336001600160a01b031614610d445760405162461bcd60e51b81526004016108c590615819565b610d4d816126b1565b50565b60005460405163237dfb4760e11b8152336004820152620100009091046001600160a01b0316906346fbf68e90602401602060405180830381865afa158015610d9d573d6000803e3d6000fd5b505050506040513d601f19601f82011682018060405250810190610dc19190615863565b610ddd5760405162461bcd60e51b81526004016108c590615885565b60015481811614610e565760405162461bcd60e51b815260206004820152603860248201527f5061757361626c652e70617573653a20696e76616c696420617474656d70742060448201527f746f20756e70617573652066756e6374696f6e616c697479000000000000000060648201526084016108c5565b600181905560405181815233907fab40a374bc51de372200a8bc981af8c9ecdc08dfdaef0bb6e09f88f3c616ef3d90602001610c85565b60408051606081018252600080825260208201819052918101919091526000838152609860205260409020805483908110610eca57610eca61575e565b600091825260209182902060408051606081018252919092015463ffffffff8082168352600160201b820416938201939093526001600160c01b03600160401b909304929092169082015290505b92915050565b6040516308f6629d60e31b8152600481018290526000907f00000000000000000000000000000000000000000000000000000000000000006001600160a01b0316906347b314e890602401602060405180830381865afa158015610f86573d6000803e3d6000fd5b505050506040513d601f19601f82011682018060405250810190610f1891906157fc565b610fb2612652565b610d4d816127b6565b610fc3612652565b610d4d8161281f565b6040805180820190915260008082526020820152610f186110467f2bd82124057f0913bc3b772ce7b83e8057c1ad1f3510fc83778be20f10ec5de68460405160200161102b9291909182526001600160a01b0316602082015260400190565b60405160208183030381529060405280519060200120612888565b6128d6565b6001546002906004908116036110735760405162461bcd60e51b81526004016108c590615727565b60006110bb84848080601f0160208091040260200160405190810160405280939291908181526020018383808284376000920191909152505060965460ff1691506129659050565b905084831461112c5760405162461bcd60e51b81526020600482015260436024820152600080516020615ef483398151915260448201527f6f7273466f7251756f72756d3a20696e707574206c656e677468206d69736d616064820152620e8c6d60eb1b608482015260a4016108c5565b60005b8381101561155257600085858381811061114b5761114b61575e565b919091013560f81c9150369050600089898581811061116c5761116c61575e565b905060200281019061117e91906158cd565b6040516379a0849160e11b815260ff8616600482015291935091507f00000000000000000000000000000000000000000000000000000000000000006001600160a01b03169063f341092290602401602060405180830381865afa1580156111ea573d6000803e3d6000fd5b505050506040513d601f19601f8201168201806040525081019061120e9190615916565b63ffffffff1681146112aa5760405162461bcd60e51b81526020600482015260656024820152600080516020615ef483398151915260448201527f6f7273466f7251756f72756d3a206e756d626572206f6620757064617465642060648201527f6f70657261746f727320646f6573206e6f74206d617463682071756f72756d206084820152641d1bdd185b60da1b60a482015260c4016108c5565b6000805b828110156114f15760008484838181106112ca576112ca61575e565b90506020020160208101906112df9190614cad565b6001600160a01b03811660009081526099602090815260408083208151808301909252805482526001810154949550929390929183019060ff16600281111561132a5761132a614ddb565b600281111561133b5761133b614ddb565b9052508051909150600061134e8261242e565b905060016001600160c01b03821660ff8b161c8116146113d25760405162461bcd60e51b815260206004820152604460248201819052600080516020615ef4833981519152908201527f6f7273466f7251756f72756d3a206f70657261746f72206e6f7420696e2071756064820152636f72756d60e01b608482015260a4016108c5565b856001600160a01b0316846001600160a01b03161161147d5760405162461bcd60e51b81526020600482015260676024820152600080516020615ef483398151915260448201527f6f7273466f7251756f72756d3a206f70657261746f7273206172726179206d7560648201527f737420626520736f7274656420696e20617363656e64696e6720616464726573608482015266399037b93232b960c91b60a482015260c4016108c5565b506114db83838f8f8d908e60016114949190615933565b926114a193929190615946565b8080601f01602080910402602001604051908101604052809392919081815260200183838082843760009201919091525061256592505050565b509092506114ea90508161578a565b90506112ae565b5060ff84166000818152609b6020908152604091829020439081905591519182527f46077d55330763f16269fd75e5761663f4192d2791747c0189b16ad31db07db4910160405180910390a2505050508061154b9061578a565b905061112f565b50505050505050565b60408051808201909152600080825260208201526001600160a01b0382166000908152609960209081526040918290208251808401909352805483526001810154909183019060ff1660028111156115b5576115b5614ddb565b60028111156115c6576115c6614ddb565b90525092915050565b60005460405163237dfb4760e11b8152336004820152620100009091046001600160a01b0316906346fbf68e90602401602060405180830381865afa15801561161c573d6000803e3d6000fd5b505050506040513d601f19601f820116820180604052508101906116409190615863565b61165c5760405162461bcd60e51b81526004016108c590615885565b600019600181905560405190815233907fab40a374bc51de372200a8bc981af8c9ecdc08dfdaef0bb6e09f88f3c616ef3d9060200160405180910390a2565b6116a3612652565b609654829060ff908116908216106117235760405162461bcd60e51b815260206004820152603760248201527f5265676973747279436f6f7264696e61746f722e71756f72756d45786973747360448201527f3a2071756f72756d20646f6573206e6f7420657869737400000000000000000060648201526084016108c5565b61172d83836129f6565b505050565b609c818154811061174257600080fd5b6000918252602090912001546001600160a01b0316905081565b609e546001600160a01b031633146117dc5760405162461bcd60e51b815260206004820152603a60248201527f5265676973747279436f6f7264696e61746f722e6f6e6c79456a6563746f723a60448201527f2063616c6c6572206973206e6f742074686520656a6563746f7200000000000060648201526084016108c5565b6001600160a01b0383166000908152609f602090815260408083204290556099825280832080548251601f87018590048502810185019093528583529093909290916118499187908790819084018382808284376000920191909152505060965460ff1691506129659050565b905060006118568361242e565b905060018085015460ff16600281111561187257611872614ddb565b14801561188757506001600160c01b03821615155b80156118a557506118a56001600160c01b0383811690831681161490565b15611552576115528787878080601f016020809104026020016040519081016040528093929190818152602001838380828437600092019190915250612aa392505050565b6118f2612652565b6118fc6000612f15565b565b600061193e7f4d404e3276e7ac2163d8ee476afa6a41d1f68fb71f2d8b6546b24e55ce01b72a878787878760405160200161102b96959493929190615970565b9695505050505050565b6000610f188261242e565b60006119676064546001600160a01b031690565b905090565b60018054600091908116036119935760405162461bcd60e51b81526004016108c590615727565b838914611a165760405162461bcd60e51b8152602060048201526044602482018190527f5265676973747279436f6f7264696e61746f722e72656769737465724f706572908201527f61746f7257697468436875726e3a20696e707574206c656e677468206d69736d6064820152630c2e8c6d60e31b608482015260a4016108c5565b6000611a223388612f67565b9050611a8233828888808060200260200160405190810160405280939291908181526020016000905b82821015611a7757611a68604083028601368190038101906159f5565b81526020019060010190611a4b565b50505050508761309c565b6000611ac933838e8e8e8e8080601f0160208091040260200160405190810160405280939291908181526020018383808284376000920191909152508c9250613229915050565b905060005b8b811015611c94576000609760008f8f85818110611aee57611aee61575e565b919091013560f81c82525060208082019290925260409081016000208151606081018352905463ffffffff811680835261ffff600160201b8304811695840195909552600160301b90910490931691810191909152845180519193509084908110611b5b57611b5b61575e565b602002602001015163ffffffff161115611c8157611bfc8e8e84818110611b8457611b8461575e565b9050013560f81c60f81b60f81c84604001518481518110611ba757611ba761575e565b60200260200101513386602001518681518110611bc657611bc661575e565b60200260200101518d8d88818110611be057611be061575e565b905060400201803603810190611bf691906159f5565b866137ea565b611c81898984818110611c1157611c1161575e565b9050604002016020016020810190611c299190614cad565b8f8f8590866001611c3a9190615933565b92611c4793929190615946565b8080601f016020809104026020016040519081016040528093929190818152602001838380828437600092019190915250612aa392505050565b5080611c8c8161578a565b915050611ace565b50505050505050505050505050565b6001805460009190811603611cca5760405162461bcd60e51b81526004016108c590615727565b6000611cd63385612f67565b90506000611d1f33838b8b8b8b8080601f0160208091040260200160405190810160405280939291908181526020018383808284376000920191909152508c9250613229915050565b51905060005b88811015611e1a5760008a8a83818110611d4157611d4161575e565b919091013560f81c600081815260976020526040902054855191935063ffffffff169150849084908110611d7757611d7761575e565b602002602001015163ffffffff161115611e075760405162461bcd60e51b8152602060048201526044602482018190527f5265676973747279436f6f7264696e61746f722e72656769737465724f706572908201527f61746f723a206f70657261746f7220636f756e742065786365656473206d6178606482015263696d756d60e01b608482015260a4016108c5565b5080611e128161578a565b915050611d25565b50505050505050505050565b6060600082516001600160401b03811115611e4357611e43614b51565b604051908082528060200260200182016040528015611e6c578160200160208202803683370190505b50905060005b8351811015611ed757611e9e85858381518110611e9157611e9161575e565b6020026020010151613abe565b828281518110611eb057611eb061575e565b63ffffffff9092166020928302919091019091015280611ecf8161578a565b915050611e72565b509392505050565b60018054600290811603611f055760405162461bcd60e51b81526004016108c590615727565b61172d3384848080601f016020809104026020016040519081016040528093929190818152602001838380828437600092019190915250612aa392505050565b611f4d612652565b61172d838383613bfa565b600054610100900460ff1615808015611f785750600054600160ff909116105b80611f925750303b158015611f92575060005460ff166001145b611ff55760405162461bcd60e51b815260206004820152602e60248201527f496e697469616c697a61626c653a20636f6e747261637420697320616c72656160448201526d191e481a5b9a5d1a585b1a5e995960921b60648201526084016108c5565b6000805460ff191660011790558015612018576000805461ff0019166101001790555b8251845114801561202a575081518351145b6120945760405162461bcd60e51b815260206004820152603560248201527f5265676973747279436f6f7264696e61746f722e696e697469616c697a653a206044820152740d2dce0eae840d8cadccee8d040dad2e6dac2e8c6d605b1b60648201526084016108c5565b61209d89612f15565b6120a78686613e11565b6120b0886127b6565b6120b98761281f565b609c80546001818101835560008381527faf85b9071dfafeac1409d3f1d19bafc9bc7c37974cde8df0ee6168f0086e539c92830180546001600160a01b037f000000000000000000000000000000000000000000000000000000000000000081166001600160a01b03199283161790925585548085018755850180547f0000000000000000000000000000000000000000000000000000000000000000841690831617905585549384019095559190920180547f000000000000000000000000000000000000000000000000000000000000000090921691909316179091555b845181101561220a576121f88582815181106121b7576121b761575e565b60200260200101518583815181106121d1576121d161575e565b60200260200101518584815181106121eb576121eb61575e565b6020026020010151613bfa565b806122028161578a565b915050612199565b508015612251576000805461ff0019169055604051600181527f7f26b83ff96e1f2b6a682f133852f6798a09c465da95921460cefb38474024989060200160405180910390a15b505050505050505050565b612264612652565b6001600160a01b0381166122c95760405162461bcd60e51b815260206004820152602660248201527f4f776e61626c653a206e6577206f776e657220697320746865207a65726f206160448201526564647265737360d01b60648201526084016108c5565b610d4d81612f15565b600060029054906101000a90046001600160a01b03166001600160a01b031663eab66d7a6040518163ffffffff1660e01b8152600401602060405180830381865afa158015612325573d6000803e3d6000fd5b505050506040513d601f19601f8201168201806040525081019061234991906157fc565b6001600160a01b0316336001600160a01b0316146123795760405162461bcd60e51b81526004016108c590615819565b6001541981196001541916146123f75760405162461bcd60e51b815260206004820152603860248201527f5061757361626c652e756e70617573653a20696e76616c696420617474656d7060448201527f7420746f2070617573652066756e6374696f6e616c697479000000000000000060648201526084016108c5565b600181905560405181815233907f3582d1828e26bf56bd801502bc021ac0bc8afb57c826e4986b45593c8fad389c90602001610c85565b60008181526098602052604081205480820361244d5750600092915050565b6000838152609860205260409020612466600183615a11565b815481106124765761247661575e565b600091825260209091200154600160401b90046001600160c01b03169392505050565b60606000806124a784613f01565b61ffff166001600160401b038111156124c2576124c2614b51565b6040519080825280601f01601f1916602001820160405280156124ec576020820181803683370190505b5090506000805b825182108015612504575061010081105b1561255b576001811b93508584161561254b578060f81b83838151811061252d5761252d61575e565b60200101906001600160f81b031916908160001a9053508160010191505b6125548161578a565b90506124f3565b5090949350505050565b60018260200151600281111561257d5761257d614ddb565b1461258757505050565b81516040516333567f7f60e11b81526000906001600160a01b037f000000000000000000000000000000000000000000000000000000000000000016906366acfefe906125dc90889086908890600401615a24565b6020604051808303816000875af11580156125fb573d6000803e3d6000fd5b505050506040513d601f19601f8201168201806040525081019061261f9190615a54565b90506001600160c01b0381161561264b5761264b85612646836001600160c01b0316612499565b612aa3565b5050505050565b3361265b611953565b6001600160a01b0316146118fc5760405162461bcd60e51b815260206004820181905260248201527f4f776e61626c653a2063616c6c6572206973206e6f7420746865206f776e657260448201526064016108c5565b6001600160a01b03811661273f5760405162461bcd60e51b815260206004820152604960248201527f5061757361626c652e5f73657450617573657252656769737472793a206e657760448201527f50617573657252656769737472792063616e6e6f7420626520746865207a65726064820152686f206164647265737360b81b608482015260a4016108c5565b600054604080516001600160a01b03620100009093048316815291831660208301527f6e9fcd539896fca60e8b0f01dd580233e48a6b0f7df013b89ba7f565869acdb6910160405180910390a1600080546001600160a01b03909216620100000262010000600160b01b0319909216919091179055565b609d54604080516001600160a01b03928316815291831660208301527f315457d8a8fe60f04af17c16e2f5a5e1db612b31648e58030360759ef8f3528c910160405180910390a1609d80546001600160a01b0319166001600160a01b0392909216919091179055565b609e54604080516001600160a01b03928316815291831660208301527f8f30ab09f43a6c157d7fce7e0a13c003042c1c95e8a72e7a146a21c0caa24dc9910160405180910390a1609e80546001600160a01b0319166001600160a01b0392909216919091179055565b6000610f18612895613f2c565b8360405161190160f01b6020820152602281018390526042810182905260009060620160405160208183030381529060405280519060200120905092915050565b604080518082019091526000808252602082015260008080612906600080516020615f3483398151915286615a93565b90505b61291281614053565b9093509150600080516020615f34833981519152828309830361294b576040805180820190915290815260208101919091529392505050565b600080516020615f34833981519152600182089050612909565b600080612971846140d5565b9050808360ff166001901b116129ef5760405162461bcd60e51b815260206004820152603f60248201527f4269746d61705574696c732e6f72646572656442797465734172726179546f4260448201527f69746d61703a206269746d61702065786365656473206d61782076616c75650060648201526084016108c5565b9392505050565b60ff8216600081815260976020908152604091829020845181548684018051888701805163ffffffff90951665ffffffffffff199094168417600160201b61ffff938416021767ffff0000000000001916600160301b95831695909502949094179094558551918252518316938101939093525116918101919091527f3ee6fe8d54610244c3e9d3c066ae4aee997884aa28f10616ae821925401318ac9060600160405180910390a25050565b6001600160a01b0382166000908152609960205260409020805460018083015460ff166002811115612ad757612ad7614ddb565b14612b565760405162461bcd60e51b815260206004820152604360248201527f5265676973747279436f6f7264696e61746f722e5f646572656769737465724f60448201527f70657261746f723a206f70657261746f72206973206e6f7420726567697374656064820152621c995960ea1b608482015260a4016108c5565b609654600090612b6a90859060ff16612965565b90506000612b778361242e565b90506001600160c01b038216612bf55760405162461bcd60e51b815260206004820152603b60248201527f5265676973747279436f6f7264696e61746f722e5f646572656769737465724f60448201527f70657261746f723a206269746d61702063616e6e6f742062652030000000000060648201526084016108c5565b612c0c6001600160c01b0383811690831681161490565b612ca45760405162461bcd60e51b815260206004820152605960248201527f5265676973747279436f6f7264696e61746f722e5f646572656769737465724f60448201527f70657261746f723a206f70657261746f72206973206e6f74207265676973746560648201527f72656420666f72207370656369666965642071756f72756d7300000000000000608482015260a4016108c5565b6001600160c01b0382811619821616612cbd8482614265565b6001600160c01b038116612d8c5760018501805460ff191660021790556040516351b27a6d60e11b81526001600160a01b0388811660048301527f0000000000000000000000000000000000000000000000000000000000000000169063a364f4da90602401600060405180830381600087803b158015612d3d57600080fd5b505af1158015612d51573d6000803e3d6000fd5b50506040518692506001600160a01b038a1691507f396fdcb180cb0fea26928113fb0fd1c3549863f9cd563e6a184f1d578116c8e490600090a35b60405163f4e24fe560e01b81526001600160a01b037f0000000000000000000000000000000000000000000000000000000000000000169063f4e24fe590612dda908a908a90600401615aa7565b600060405180830381600087803b158015612df457600080fd5b505af1158015612e08573d6000803e3d6000fd5b505060405163bd29b8cd60e01b81526001600160a01b037f000000000000000000000000000000000000000000000000000000000000000016925063bd29b8cd9150612e5a9087908a90600401615acb565b600060405180830381600087803b158015612e7457600080fd5b505af1158015612e88573d6000803e3d6000fd5b505060405163bd29b8cd60e01b81526001600160a01b037f000000000000000000000000000000000000000000000000000000000000000016925063bd29b8cd9150612eda9087908a90600401615acb565b600060405180830381600087803b158015612ef457600080fd5b505af1158015612f08573d6000803e3d6000fd5b5050505050505050505050565b606480546001600160a01b038381166001600160a01b0319831681179093556040519116919082907f8be0079c531659141344cd1fd0a4f28419497f9722a3daafe3b4186f6b6457e090600090a35050565b6040516309aa152760e11b81526001600160a01b0383811660048301526000917f0000000000000000000000000000000000000000000000000000000000000000909116906313542a4e90602401602060405180830381865afa158015612fd2573d6000803e3d6000fd5b505050506040513d601f19601f82011682018060405250810190612ff69190615ae4565b90506000819003610f18577f00000000000000000000000000000000000000000000000000000000000000006001600160a01b031663bf79ce58848461303b87610fcc565b6040518463ffffffff1660e01b815260040161305993929190615afd565b6020604051808303816000875af1158015613078573d6000803e3d6000fd5b505050506040513d601f19601f820116820180604052508101906129ef9190615ae4565b6020808201516000908152609a909152604090205460ff16156131425760405162461bcd60e51b815260206004820152605260248201527f5265676973747279436f6f7264696e61746f722e5f766572696679436875726e60448201527f417070726f7665725369676e61747572653a20636875726e417070726f766572606482015271081cd85b1d08185b1c9958591e481d5cd95960721b608482015260a4016108c5565b42816040015110156131d75760405162461bcd60e51b815260206004820152605260248201527f5265676973747279436f6f7264696e61746f722e5f766572696679436875726e60448201527f417070726f7665725369676e61747572653a20636875726e417070726f766572606482015271081cda59db985d1d5c9948195e1c1a5c995960721b608482015260a4016108c5565b602080820180516000908152609a909252604091829020805460ff19166001179055609d549051918301516109ac926001600160a01b039092169161322291889188918891906118fe565b8351614426565b61324d60405180606001604052806060815260200160608152602001606081525090565b600061329586868080601f0160208091040260200160405190810160405280939291908181526020018383808284376000920191909152505060965460ff1691506129659050565b905060006132a28861242e565b90506001600160c01b0382166133205760405162461bcd60e51b815260206004820152603960248201527f5265676973747279436f6f7264696e61746f722e5f72656769737465724f706560448201527f7261746f723a206269746d61702063616e6e6f7420626520300000000000000060648201526084016108c5565b8082166001600160c01b0316156133d65760405162461bcd60e51b815260206004820152606860248201527f5265676973747279436f6f7264696e61746f722e5f72656769737465724f706560448201527f7261746f723a206f70657261746f7220616c726561647920726567697374657260648201527f656420666f7220736f6d652071756f72756d73206265696e672072656769737460848201526732b932b2103337b960c11b60a482015260c4016108c5565b60a0546001600160a01b038a166000908152609f60205260409020546001600160c01b038381169085161791429161340e9190615933565b1061348f5760405162461bcd60e51b815260206004820152604560248201527f5265676973747279436f6f7264696e61746f722e5f72656769737465724f706560448201527f7261746f723a206f70657261746f722063616e6e6f74207265726567697374656064820152641c881e595d60da1b608482015260a4016108c5565b6134998982614265565b887fec2963ab21c1e50e1e582aa542af2e4bf7bf38e6e1403c27b42e1c5d6e621eaa876040516134c991906157e9565b60405180910390a260016001600160a01b038b1660009081526099602052604090206001015460ff16600281111561350357613503614ddb565b1461361c576040805180820182528a8152600160208083018281526001600160a01b038f166000908152609990925293902082518155925183820180549394939192909160ff19169083600281111561355e5761355e614ddb565b021790555050604051639926ee7d60e01b81526001600160a01b037f0000000000000000000000000000000000000000000000000000000000000000169150639926ee7d906135b3908d908990600401615b6d565b600060405180830381600087803b1580156135cd57600080fd5b505af11580156135e1573d6000803e3d6000fd5b50506040518b92506001600160a01b038d1691507fe8e68cef1c3a761ed7be7e8463a375f27f7bc335e51824223cacce636ec5c3fe90600090a35b604051631fd93ca960e11b81526001600160a01b037f00000000000000000000000000000000000000000000000000000000000000001690633fb279529061366c908d908c908c90600401615be1565b600060405180830381600087803b15801561368657600080fd5b505af115801561369a573d6000803e3d6000fd5b5050604051632550477760e01b81526001600160a01b037f0000000000000000000000000000000000000000000000000000000000000000169250632550477791506136f0908d908d908d908d90600401615c06565b6000604051808303816000875af115801561370f573d6000803e3d6000fd5b505050506040513d6000823e601f3d908101601f191682016040526137379190810190615c92565b60408087019190915260208601919091525162bff04d60e01b81526001600160a01b037f0000000000000000000000000000000000000000000000000000000000000000169062bff04d90613794908c908c908c90600401615cf5565b6000604051808303816000875af11580156137b3573d6000803e3d6000fd5b505050506040513d6000823e601f3d908101601f191682016040526137db9190810190615d0f565b84525050509695505050505050565b6020808301516001600160a01b03808216600081815260999094526040909320549192908716036138695760405162461bcd60e51b81526020600482015260356024820152600080516020615f1483398151915260448201527439371d1031b0b73737ba1031b43ab9371039b2b63360591b60648201526084016108c5565b8760ff16846000015160ff16146138e65760405162461bcd60e51b81526020600482015260476024820152600080516020615f1483398151915260448201527f726e3a2071756f72756d4e756d626572206e6f74207468652073616d65206173606482015266081cda59db995960ca1b608482015260a4016108c5565b604051635401ed2760e01b81526004810182905260ff891660248201526000907f00000000000000000000000000000000000000000000000000000000000000006001600160a01b031690635401ed2790604401602060405180830381865afa158015613957573d6000803e3d6000fd5b505050506040513d601f19601f8201168201806040525081019061397b9190615da8565b905061398781856145e0565b6001600160601b0316866001600160601b031611613a1a5760405162461bcd60e51b81526020600482015260566024820152600080516020615f1483398151915260448201527f726e3a20696e636f6d696e67206f70657261746f722068617320696e7375666660648201527534b1b4b2b73a1039ba30b5b2903337b91031b43ab93760511b608482015260a4016108c5565b613a248885614604565b6001600160601b0316816001600160601b0316106122515760405162461bcd60e51b815260206004820152605c6024820152600080516020615f1483398151915260448201527f726e3a2063616e6e6f74206b69636b206f70657261746f722077697468206d6f60648201527f7265207468616e206b69636b424950734f66546f74616c5374616b6500000000608482015260a4016108c5565b600081815260986020526040812054815b81811015613b50576001613ae38284615a11565b613aed9190615a11565b92508463ffffffff16609860008681526020019081526020016000208463ffffffff1681548110613b2057613b2061575e565b60009182526020909120015463ffffffff1611613b3e575050610f18565b80613b488161578a565b915050613acf565b5060405162461bcd60e51b815260206004820152606c60248201527f5265676973747279436f6f7264696e61746f722e67657451756f72756d42697460448201527f6d6170496e6465784174426c6f636b4e756d6265723a206e6f206269746d617060648201527f2075706461746520666f756e6420666f72206f70657261746f7249642061742060848201526b313637b1b590373ab6b132b960a11b60a482015260c4016108c5565b60965460ff1660c08110613c6e5760405162461bcd60e51b815260206004820152603560248201527f5265676973747279436f6f7264696e61746f722e63726561746551756f72756d6044820152740e881b585e081c5d5bdc9d5b5cc81c995858da1959605a1b60648201526084016108c5565b613c79816001615dc5565b6096805460ff191660ff9290921691909117905580613c9881866129f6565b60405160016296b58960e01b031981526001600160a01b037f0000000000000000000000000000000000000000000000000000000000000000169063ff694a7790613ceb90849088908890600401615dde565b600060405180830381600087803b158015613d0557600080fd5b505af1158015613d19573d6000803e3d6000fd5b505060405163136ca0f960e11b815260ff841660048201527f00000000000000000000000000000000000000000000000000000000000000006001600160a01b031692506326d941f29150602401600060405180830381600087803b158015613d8157600080fd5b505af1158015613d95573d6000803e3d6000fd5b505060405163136ca0f960e11b815260ff841660048201527f00000000000000000000000000000000000000000000000000000000000000006001600160a01b031692506326d941f29150602401600060405180830381600087803b158015613dfd57600080fd5b505af1158015612251573d6000803e3d6000fd5b6000546201000090046001600160a01b0316158015613e3857506001600160a01b03821615155b613eba5760405162461bcd60e51b815260206004820152604760248201527f5061757361626c652e5f696e697469616c697a655061757365723a205f696e6960448201527f7469616c697a6550617573657228292063616e206f6e6c792062652063616c6c6064820152666564206f6e636560c81b608482015260a4016108c5565b600181905560405181815233907fab40a374bc51de372200a8bc981af8c9ecdc08dfdaef0bb6e09f88f3c616ef3d9060200160405180910390a2613efd826126b1565b5050565b6000805b8215610f1857613f16600184615a11565b9092169180613f2481615e57565b915050613f05565b6000306001600160a01b037f000000000000000000000000000000000000000000000000000000000000000016148015613f8557507f000000000000000000000000000000000000000000000000000000000000000046145b15613faf57507f000000000000000000000000000000000000000000000000000000000000000090565b50604080517f00000000000000000000000000000000000000000000000000000000000000006020808301919091527f0000000000000000000000000000000000000000000000000000000000000000828401527f000000000000000000000000000000000000000000000000000000000000000060608301524660808301523060a0808401919091528351808403909101815260c0909201909252805191012090565b60008080600080516020615f348339815191526003600080516020615f3483398151915286600080516020615f348339815191528889090908905060006140c9827f0c19139cb84c680a6e14116da060561765e05aa45a1c72a34f082305b61f3f52600080516020615f3483398151915261461e565b91959194509092505050565b60006101008251111561415e5760405162461bcd60e51b8152602060048201526044602482018190527f4269746d61705574696c732e6f72646572656442797465734172726179546f42908201527f69746d61703a206f7264657265644279746573417272617920697320746f6f206064820152636c6f6e6760e01b608482015260a4016108c5565b815160000361416f57506000919050565b600080836000815181106141855761418561575e565b0160200151600160f89190911c81901b92505b845181101561425c578481815181106141b3576141b361575e565b0160200151600160f89190911c1b91508282116142485760405162461bcd60e51b815260206004820152604760248201527f4269746d61705574696c732e6f72646572656442797465734172726179546f4260448201527f69746d61703a206f72646572656442797465734172726179206973206e6f74206064820152661bdc99195c995960ca1b608482015260a4016108c5565b918117916142558161578a565b9050614198565b50909392505050565b6000828152609860205260408120549081900361430d576000838152609860209081526040808320815160608101835263ffffffff43811682528185018681526001600160c01b03808a16958401958652845460018101865594885295909620915191909201805495519351909416600160401b026001600160401b03938316600160201b0267ffffffffffffffff1990961691909216179390931716919091179055505050565b6000838152609860205260408120614326600184615a11565b815481106143365761433661575e565b6000918252602090912001805490915063ffffffff4381169116036143785780546001600160401b0316600160401b6001600160c01b038516021781556109ac565b805463ffffffff438116600160201b81810267ffffffff0000000019909416939093178455600087815260986020908152604080832081516060810183529485528483018481526001600160c01b03808c1693870193845282546001810184559286529390942094519401805493519151909216600160401b026001600160401b0391861690960267ffffffffffffffff199093169390941692909217179190911691909117905550505050565b6001600160a01b0383163b1561454057604051630b135d3f60e11b808252906001600160a01b03851690631626ba7e906144669086908690600401615acb565b602060405180830381865afa158015614483573d6000803e3d6000fd5b505050506040513d601f19601f820116820180604052508101906144a79190615e78565b6001600160e01b0319161461172d5760405162461bcd60e51b815260206004820152605360248201527f454950313237315369676e61747572655574696c732e636865636b5369676e6160448201527f747572655f454950313237313a2045524331323731207369676e6174757265206064820152721d995c9a599a58d85d1a5bdb8819985a5b1959606a1b608482015260a4016108c5565b826001600160a01b031661455483836146c7565b6001600160a01b03161461172d5760405162461bcd60e51b815260206004820152604760248201527f454950313237315369676e61747572655574696c732e636865636b5369676e6160448201527f747572655f454950313237313a207369676e6174757265206e6f742066726f6d6064820152661039b4b3b732b960c91b608482015260a4016108c5565b6020810151600090612710906145fa9061ffff1685615ea2565b6129ef9190615ecd565b6040810151600090612710906145fa9061ffff1685615ea2565b600080614629614a2d565b614631614a4b565b602080825281810181905260408201819052606082018890526080820187905260a082018690528260c08360056107d05a03fa9250828061466e57fe5b50826146bc5760405162461bcd60e51b815260206004820152601a60248201527f424e3235342e6578704d6f643a2063616c6c206661696c75726500000000000060448201526064016108c5565b505195945050505050565b60008060006146d685856146e3565b91509150611ed781614751565b60008082516041036147195760208301516040840151606085015160001a61470d87828585614907565b9450945050505061474a565b825160400361474257602083015160408401516147378683836149f4565b93509350505061474a565b506000905060025b9250929050565b600081600481111561476557614765614ddb565b0361476d5750565b600181600481111561478157614781614ddb565b036147ce5760405162461bcd60e51b815260206004820152601860248201527f45434453413a20696e76616c6964207369676e6174757265000000000000000060448201526064016108c5565b60028160048111156147e2576147e2614ddb565b0361482f5760405162461bcd60e51b815260206004820152601f60248201527f45434453413a20696e76616c6964207369676e6174757265206c656e6774680060448201526064016108c5565b600381600481111561484357614843614ddb565b0361489b5760405162461bcd60e51b815260206004820152602260248201527f45434453413a20696e76616c6964207369676e6174757265202773272076616c604482015261756560f01b60648201526084016108c5565b60048160048111156148af576148af614ddb565b03610d4d5760405162461bcd60e51b815260206004820152602260248201527f45434453413a20696e76616c6964207369676e6174757265202776272076616c604482015261756560f01b60648201526084016108c5565b6000807f7fffffffffffffffffffffffffffffff5d576e7357a4501ddfe92f46681b20a083111561493e57506000905060036149eb565b8460ff16601b1415801561495657508460ff16601c14155b1561496757506000905060046149eb565b6040805160008082526020820180845289905260ff881692820192909252606081018690526080810185905260019060a0016020604051602081039080840390855afa1580156149bb573d6000803e3d6000fd5b5050604051601f1901519150506001600160a01b0381166149e4576000600192509250506149eb565b9150600090505b94509492505050565b6000806001600160ff1b03831681614a1160ff86901c601b615933565b9050614a1f87828885614907565b935093505050935093915050565b60405180602001604052806001906020820280368337509192915050565b6040518060c001604052806006906020820280368337509192915050565b60008083601f840112614a7b57600080fd5b5081356001600160401b03811115614a9257600080fd5b6020830191508360208260051b850101111561474a57600080fd5b60008060208385031215614ac057600080fd5b82356001600160401b03811115614ad657600080fd5b614ae285828601614a69565b90969095509350505050565b600060208284031215614b0057600080fd5b5035919050565b63ffffffff81168114610d4d57600080fd5b600080600060608486031215614b2e57600080fd5b833592506020840135614b4081614b07565b929592945050506040919091013590565b634e487b7160e01b600052604160045260246000fd5b604051606081016001600160401b0381118282101715614b8957614b89614b51565b60405290565b604080519081016001600160401b0381118282101715614b8957614b89614b51565b604051601f8201601f191681016001600160401b0381118282101715614bd957614bd9614b51565b604052919050565b60006001600160401b03831115614bfa57614bfa614b51565b614c0d601f8401601f1916602001614bb1565b9050828152838383011115614c2157600080fd5b828260208301376000602084830101529392505050565b600060208284031215614c4a57600080fd5b81356001600160401b03811115614c6057600080fd5b8201601f81018413614c7157600080fd5b614c8084823560208401614be1565b949350505050565b6001600160a01b0381168114610d4d57600080fd5b8035614ca881614c88565b919050565b600060208284031215614cbf57600080fd5b81356129ef81614c88565b60008060408385031215614cdd57600080fd5b50508035926020909101359150565b803560ff81168114614ca857600080fd5b600060208284031215614d0f57600080fd5b6129ef82614cec565b815181526020808301519082015260408101610f18565b60008083601f840112614d4157600080fd5b5081356001600160401b03811115614d5857600080fd5b60208301915083602082850101111561474a57600080fd5b60008060008060408587031215614d8657600080fd5b84356001600160401b0380821115614d9d57600080fd5b614da988838901614a69565b90965094506020870135915080821115614dc257600080fd5b50614dcf87828801614d2f565b95989497509550505050565b634e487b7160e01b600052602160045260246000fd5b60038110614e0f57634e487b7160e01b600052602160045260246000fd5b9052565b815181526020808301516040830191614e2e90840182614df1565b5092915050565b803561ffff81168114614ca857600080fd5b600060608284031215614e5957600080fd5b614e61614b67565b90508135614e6e81614b07565b8152614e7c60208301614e35565b6020820152614e8d60408301614e35565b604082015292915050565b60008060808385031215614eab57600080fd5b614eb483614cec565b9150614ec38460208501614e47565b90509250929050565b600080600060408486031215614ee157600080fd5b8335614eec81614c88565b925060208401356001600160401b03811115614f0757600080fd5b614f1386828701614d2f565b9497909650939450505050565b60006001600160401b03821115614f3957614f39614b51565b5060051b60200190565b600060408284031215614f5557600080fd5b614f5d614b8f565b9050614f6882614cec565b81526020820135614f7881614c88565b602082015292915050565b600080600080600060a08688031215614f9b57600080fd5b8535614fa681614c88565b945060208681013594506040808801356001600160401b03811115614fca57600080fd5b8801601f81018a13614fdb57600080fd5b8035614fee614fe982614f20565b614bb1565b81815260069190911b8201840190848101908c83111561500d57600080fd5b928501925b82841015615033576150248d85614f43565b82529284019290850190615012565b999c989b5098996060810135995060800135979650505050505050565b6000610100828403121561506357600080fd5b50919050565b60008083601f84011261507b57600080fd5b5081356001600160401b0381111561509257600080fd5b6020830191508360208260061b850101111561474a57600080fd5b6000606082840312156150bf57600080fd5b6150c7614b67565b905081356001600160401b038111156150df57600080fd5b8201601f810184136150f057600080fd5b6150ff84823560208401614be1565b825250602082013560208201526040820135604082015292915050565b60008060008060008060008060006101a08a8c03121561513b57600080fd5b89356001600160401b038082111561515257600080fd5b61515e8d838e01614d2f565b909b50995060208c013591508082111561517757600080fd5b6151838d838e01614d2f565b90995097508791506151988d60408e01615050565b96506101408c01359150808211156151af57600080fd5b6151bb8d838e01615069565b90965094506101608c01359150808211156151d557600080fd5b6151e18d838e016150ad565b93506101808c01359150808211156151f857600080fd5b506152058c828d016150ad565b9150509295985092959850929598565b600080600080600080610160878903121561522f57600080fd5b86356001600160401b038082111561524657600080fd5b6152528a838b01614d2f565b9098509650602089013591508082111561526b57600080fd5b6152778a838b01614d2f565b909650945084915061528c8a60408b01615050565b93506101408901359150808211156152a357600080fd5b506152b089828a016150ad565b9150509295509295509295565b600080604083850312156152d057600080fd5b82356152db81614b07565b91506020838101356001600160401b038111156152f757600080fd5b8401601f8101861361530857600080fd5b8035615316614fe982614f20565b81815260059190911b8201830190838101908883111561533557600080fd5b928401925b828410156153535783358252928401929084019061533a565b80955050505050509250929050565b6020808252825182820181905260009190848201906040850190845b818110156153a057835163ffffffff168352928401929184019160010161537e565b50909695505050505050565b600080602083850312156153bf57600080fd5b82356001600160401b038111156153d557600080fd5b614ae285828601614d2f565b6001600160601b0381168114610d4d57600080fd5b600082601f83011261540757600080fd5b81356020615417614fe983614f20565b82815260069290921b8401810191818101908684111561543657600080fd5b8286015b8481101561548757604081890312156154535760008081fd5b61545b614b8f565b813561546681614c88565b815281850135615475816153e1565b8186015283529183019160400161543a565b509695505050505050565b600080600060a084860312156154a757600080fd5b6154b18585614e47565b925060608401356154c1816153e1565b915060808401356001600160401b038111156154dc57600080fd5b6154e8868287016153f6565b9150509250925092565b600082601f83011261550357600080fd5b81356020615513614fe983614f20565b8281526060928302850182019282820191908785111561553257600080fd5b8387015b85811015615555576155488982614e47565b8452928401928101615536565b5090979650505050505050565b600082601f83011261557357600080fd5b81356020615583614fe983614f20565b82815260059290921b840181019181810190868411156155a257600080fd5b8286015b848110156154875780356155b9816153e1565b83529183019183016155a6565b600082601f8301126155d757600080fd5b813560206155e7614fe983614f20565b82815260059290921b8401810191818101908684111561560657600080fd5b8286015b848110156154875780356001600160401b038111156156295760008081fd5b6156378986838b01016153f6565b84525091830191830161560a565b600080600080600080600080610100898b03121561566257600080fd5b61566b89614c9d565b975061567960208a01614c9d565b965061568760408a01614c9d565b955061569560608a01614c9d565b94506080890135935060a08901356001600160401b03808211156156b857600080fd5b6156c48c838d016154f2565b945060c08b01359150808211156156da57600080fd5b6156e68c838d01615562565b935060e08b01359150808211156156fc57600080fd5b506157098b828c016155c6565b9150509295985092959890939650565b60208101610f188284614df1565b60208082526019908201527f5061757361626c653a20696e6465782069732070617573656400000000000000604082015260600190565b634e487b7160e01b600052603260045260246000fd5b634e487b7160e01b600052601160045260246000fd5b60006001820161579c5761579c615774565b5060010190565b6000815180845260005b818110156157c9576020818501810151868301820152016157ad565b506000602082860101526020601f19601f83011685010191505092915050565b6020815260006129ef60208301846157a3565b60006020828403121561580e57600080fd5b81516129ef81614c88565b6020808252602a908201527f6d73672e73656e646572206973206e6f74207065726d697373696f6e6564206160408201526939903ab73830bab9b2b960b11b606082015260800190565b60006020828403121561587557600080fd5b815180151581146129ef57600080fd5b60208082526028908201527f6d73672e73656e646572206973206e6f74207065726d697373696f6e6564206160408201526739903830bab9b2b960c11b606082015260800190565b6000808335601e198436030181126158e457600080fd5b8301803591506001600160401b038211156158fe57600080fd5b6020019150600581901b360382131561474a57600080fd5b60006020828403121561592857600080fd5b81516129ef81614b07565b80820180821115610f1857610f18615774565b6000808585111561595657600080fd5b8386111561596357600080fd5b5050820193919092039150565b600060c08201888352602060018060a01b03808a16828601526040898187015260c0606087015283895180865260e088019150848b01955060005b818110156159d5578651805160ff16845286015185168684015295850195918301916001016159ab565b505060808701989098525050505060a09091019190915250949350505050565b600060408284031215615a0757600080fd5b6129ef8383614f43565b81810381811115610f1857610f18615774565b60018060a01b0384168152826020820152606060408201526000615a4b60608301846157a3565b95945050505050565b600060208284031215615a6657600080fd5b81516001600160c01b03811681146129ef57600080fd5b634e487b7160e01b600052601260045260246000fd5b600082615aa257615aa2615a7d565b500690565b6001600160a01b0383168152604060208201819052600090614c80908301846157a3565b828152604060208201526000614c8060408301846157a3565b600060208284031215615af657600080fd5b5051919050565b6001600160a01b03841681526101608101615b25602083018580358252602090810135910152565b615b3f606083016040860180358252602090810135910152565b60406080850160a0840137604060c0850160e084013782516101208301526020830151610140830152614c80565b60018060a01b0383168152604060208201526000825160606040840152615b9760a08401826157a3565b90506020840151606084015260408401516080840152809150509392505050565b81835281816020850137506000828201602090810191909152601f909101601f19169091010190565b6001600160a01b0384168152604060208201819052600090615a4b9083018486615bb8565b60018060a01b038516815283602082015260606040820152600061193e606083018486615bb8565b600082601f830112615c3f57600080fd5b81516020615c4f614fe983614f20565b82815260059290921b84018101918181019086841115615c6e57600080fd5b8286015b84811015615487578051615c85816153e1565b8352918301918301615c72565b60008060408385031215615ca557600080fd5b82516001600160401b0380821115615cbc57600080fd5b615cc886838701615c2e565b93506020850151915080821115615cde57600080fd5b50615ceb85828601615c2e565b9150509250929050565b838152604060208201526000615a4b604083018486615bb8565b60006020808385031215615d2257600080fd5b82516001600160401b03811115615d3857600080fd5b8301601f81018513615d4957600080fd5b8051615d57614fe982614f20565b81815260059190911b82018301908381019087831115615d7657600080fd5b928401925b82841015615d9d578351615d8e81614b07565b82529284019290840190615d7b565b979650505050505050565b600060208284031215615dba57600080fd5b81516129ef816153e1565b60ff8181168382160190811115610f1857610f18615774565b60006060820160ff8616835260206001600160601b03808716828601526040606081870152838751808652608088019150848901955060005b81811015615e4757865180516001600160a01b031684528601518516868401529585019591830191600101615e17565b50909a9950505050505050505050565b600061ffff808316818103615e6e57615e6e615774565b6001019392505050565b600060208284031215615e8a57600080fd5b81516001600160e01b0319811681146129ef57600080fd5b6001600160601b03818116838216028082169190828114615ec557615ec5615774565b505092915050565b60006001600160601b0380841680615ee757615ee7615a7d565b9216919091049291505056fe5265676973747279436f6f7264696e61746f722e7570646174654f70657261745265676973747279436f6f7264696e61746f722e5f76616c696461746543687530644e72e131a029b85045b68181585d97816a916871ca8d3c208c16d87cfd47a26469706673582212209cd341171da0e2728e08c18281e49eb74af509d07c50ed07ac2bd77c39894ead64736f6c63430008150033","linkReferences":{}},"methodIdentifiers":{"OPERATOR_CHURN_APPROVAL_TYPEHASH()":"ca0de882","PUBKEY_REGISTRATION_TYPEHASH()":"9feab859","blsApkRegistry()":"5df45946","calculateOperatorChurnApprovalDigestHash(address,bytes32,(uint8,address)[],bytes32,uint256)":"84ca5213","churnApprover()":"054310e6","createQuorum((uint32,uint16,uint16),uint96,(address,uint96)[])":"d75b4c88","deregisterOperator(bytes)":"ca4f2d97","ejectOperator(address,bytes)":"6e3b17db","ejectionCooldown()":"a96f783e","ejector()":"28f61b31","getCurrentQuorumBitmap(bytes32)":"871ef049","getOperator(address)":"5865c60c","getOperatorFromId(bytes32)":"296bb064","getOperatorId(address)":"13542a4e","getOperatorSetParams(uint8)":"e65797ad","getOperatorStatus(address)":"fd39105a","getQuorumBitmapAtBlockNumberByIndex(bytes32,uint32,uint256)":"04ec6351","getQuorumBitmapHistoryLength(bytes32)":"03fd3492","getQuorumBitmapIndicesAtBlockNumber(uint32,bytes32[])":"c391425e","getQuorumBitmapUpdateByIndex(bytes32,uint256)":"1eb812da","indexRegistry()":"9e9923c2","initialize(address,address,address,address,uint256,(uint32,uint16,uint16)[],uint96[],(address,uint96)[][])":"dd8283f3","isChurnApproverSaltUsed(bytes32)":"1478851f","lastEjectionTimestamp(address)":"125e0584","numRegistries()":"d72d8dd6","owner()":"8da5cb5b","pause(uint256)":"136439dd","pauseAll()":"595c6a67","paused()":"5c975abb","paused(uint8)":"5ac86ab7","pauserRegistry()":"886f1195","pubkeyRegistrationMessageHash(address)":"3c2a7f4c","quorumCount()":"9aa1653d","quorumUpdateBlockNumber(uint8)":"249a0c42","registerOperator(bytes,string,((uint256,uint256),(uint256,uint256),(uint256[2],uint256[2])),(bytes,bytes32,uint256))":"a50857bf","registerOperatorWithChurn(bytes,string,((uint256,uint256),(uint256,uint256),(uint256[2],uint256[2])),(uint8,address)[],(bytes,bytes32,uint256),(bytes,bytes32,uint256))":"9b5d177b","registries(uint256)":"6347c900","renounceOwnership()":"715018a6","serviceManager()":"3998fdd3","setChurnApprover(address)":"29d1e0c3","setEjectionCooldown(uint256)":"0d3f2134","setEjector(address)":"2cdd1e86","setOperatorSetParams(uint8,(uint32,uint16,uint16))":"5b0b829f","setPauserRegistry(address)":"10d67a2f","stakeRegistry()":"68304835","transferOwnership(address)":"f2fde38b","unpause(uint256)":"fabc1cbc","updateOperators(address[])":"00cf2ab5","updateOperatorsForQuorum(address[][],bytes)":"5140a548","updateSocket(string)":"0cf4b767"},"id":53}